:020000040000FA
:10000000280500208D220000952200009722000084
:1000100000000000000000000000000000000000E0
:100020000000000000000000000000009922000015
:1000300000000000000000009B220000551D000091
:100040009F2200009F2200009F2200009F220000AC
:100050009F2200009F2200009F2200009F2200009C
:10006000891E00009F2200009F220000B91F00008F
:100070009F2200009F2200009F220000D91E000046
:100080009F2200000D2000009F2200009F22000000
:10009000311F00009F2200009F2200009F220000CD
:1000A0009F2200009F2200009F2200009F2200004C
:1000B00000F002F800F04EF812A030C808382418FA
:1000C0002D18AC4201D100F045F80FCCA246AB464A
:1000D0000CA730CF2D1B083F3F197C427F1E544494
:1000E0002D090426F441641EAC4201D300F032F81D
:1000F0000126334200D0FB1A3343984754465D46ED
:10010000DFE7000088560000A8560000103A02D32E
:1001100078C878C1FAD8520701D330C830C101D5A8
:1001200004680C6070470000704700000023002442
:1001300000250026103A01D378C1FBD8520700D31E
:1001400030C100D50B6070471FB504F053FF1FBDD1
:1001500010B510BD04F064FF1146FFF7F5FF02F083
:1001600001F804F07CFF03B4FFF7F2FF03BC04F0D6
:1001700083FF000080B503480022114605F015F901
:1001800080BDC04675010020B0B5AAB072B601F0BE
:10019000C1FA4D48249000200590259026904B49A7
:1001A0002791289004202990269B259A2499279806
:1001B000289C299D0295019400900320039000073C
:1001C00001F06AFB03990598414A1E9249021F916A
:1001D00020904049219122902390209B1F9A1E99A4
:1001E0002198229C239D0295019400903A4801F0A9
:1001F00053FB059901200490189019911A911B91B5
:100200001C911D901A9B199A18991B981C9C1D9D56
:10021000029501940090314801F03EFB0598304969
:100220001291139014901590169030201790149BF3
:10023000139A12991598169C179D02950194009097
:10024000284801F029FB0499059809030C910D90A9
:100250000E900F901090402011900E9B0D9A0C99CB
:100260000F98109C119D0295019400901E4801F07A
:1002700013FB059811210902069107900890099037
:100280000A9050200B90089B079A069909980A9C9F
:100290000B9D029501940090144801F0FDFA01F0C5
:1002A0006FFB01F0CDFC01F0EFFC01F093FC104876
:1002B00000687D21C90004F0E3FD00F01BF862B680
:1002C00000F040F82AB0B0BD120800000300300072
:1002D0000AAA0000110022110001003000020030C3
:1002E0000505000000030030000400300005003068
:1002F000A800002080B584B002900298401E000E35
:10030000002803D0FFE70120039011E00298401E6F
:100310000949086000200190C043032100F014FA4D
:10032000019806490860064A072111600390FFE71B
:10033000039804B080BDC04614E000E018E000E07F
:1003400010E000E080B50B4AFA20107000205070D9
:100350005080192111711E21517101219171F521D6
:100360001172054908800549088000F037FA00F04D
:10037000CFFD80BD0E020020BC010020CC0100207A
:1003800080B588B000F044FC01F00AF900F0DCFD13
:1003900000F05CFF00F0FEFED4484078002800D159
:1003A000EEE0D3480078C007002809D1FFE7D04924
:1003B0000878012210430870CC4900208871FFE7BB
:1003C000CA48C0798006C10F0120002905900FD1CD
:1003D000FFE7C648C0794007C10F012000290590FA
:1003E00006D1FFE7C148C0790007C00F0590FFE7BD
:1003F00005990120014007A801700078C007002876
:1004000031D0FFE7B948C0798006C00F002829D055
:10041000FFE7B74800788007C00F00281DD0FFE72E
:100420000020049005F0AAF8049804F0A7FE0498B0
:1004300004F0F6FF049805F097F8049805F099F891
:10044000AB490878FD2210400870B648FF2104F03F
:10045000DDFF0498B4490860FFE7A648B34904F0FB
:1004600012FEFFE78BE0A24800788007C00F00284B
:1004700006D1FFE79E490878022210430870FFE783
:10048000A0480068002808D0FFE7984880799D4977
:100490000968984A00F05CFA5CE0984800689A495C
:1004A00088420AD3FFE79D4800889D490988421881
:1004B0009049002000F0E4FA4BE09048006893492E
:1004C000884208D3FFE78948042142568949012020
:1004D00000F0D6FA3CE0894800688D49884208D38C
:1004E000FFE78248052142568249022000F0C8FAFF
:1004F0002DE082480068874988420AD3FFE7874891
:1005000000888749098842187A49002000F0B8FA23
:100510001CE07A4800688049884208D3FFE77348A6
:10052000042142567349012000F0AAFA0DE07348F5
:100530000068002808D0FFE76C48052142566D4945
:10054000022000F09DFAFFE7FFE7FFE7FFE7FFE784
:10055000FFE7FFE769480068002804D1FFE7664924
:1005600000200870FFE764480078002804D1FFE706
:10057000624963480860FFE701F054FDFFE73CE093
:100580005B480078C007002818D0FFE75849087872
:10059000FE2210400870554900200390887104F035
:1005A000EDFF039804F0EAFD039804F039FF039887
:1005B00004F0DFFF039804F0D7FFFFE74D491A204E
:1005C000C87088704870087048490291C879DF2265
:1005D0001040C871C879EF221040C871C879FB2259
:1005E0001040C871C879F7221040C87142490020F4
:1005F0000870424942480860FFE700F01FF900F028
:10060000C1FD3A4841784A48427801209142019020
:100610004ED1FFE7354881794548827901209142E2
:10062000019045D1FFE73148C0794007C10F4048EC
:10063000C0794007C20F01209142019038D1FFE7F5
:100640002A48C0790007C10F3948C0790007C20F96
:100650000120914201902BD1FFE72448C079C006C8
:10066000C10F3348C079C006C20F012091420190EA
:100670001ED1FFE71D48C0798006C10F2C48C07904
:100680008006C20F01209142019011D1FFE7174867
:10069000C079C1092648C079C20901209142019060
:1006A00006D1FFE723480068414248410190FFE737
:1006B00001990120014006A801700078C0070028B8
:1006C00012D0FFE716490888084A508000200880A9
:1006D0001849194808601949012008701849194833
:1006E000086000F0C7FFFFE708B080BD0E020020E1
:1006F000750100202F000020680100206C010020FF
:1007000070170000C401002089130000A10F000031
:10071000B90B0000D1070000E9030000CC01002064
:10072000BC010020A0010020A80100208857000083
:1007300018020020400000203075000074010020E5
:100740007001002060EA000070B582B00190009155
:100750000198002814D4FFE701980321CB431840E7
:10076000164A805801998C07E50EFF24AC40A0433F
:10077000009CA401E4B2AC4020431940885018E02A
:1007800001980F24204008380321CB4318400A4A1F
:10079000805801998D07EE0EFF25B540A843009DB6
:1007A000AD01EDB2B54028432140083919408850C9
:1007B000FFE702B070BDC0461CED00E000E400E0C1
:1007C00080B5FFF7D7FC80BD80B5034830213122CA
:1007D00004F06AF880BDC0467801002080B584B07E
:1007E0000020019004F054FE019804F035FE0198B9
:1007F00004F082FE019804F067FE019804F098FE70
:100800000C48029004F0B0F8029802214022C02364
:1008100004F0E2FA0199029804F0F1FA0648039014
:1008200003A804F057FF0146029804F0DDF904B074
:1008300080BDC046780100201A1A1A1A80B500F04F
:1008400005F800F031F800F039F880BD80B584B0CB
:1008500014484078002815D0FFE70120039004F0E9
:1008600017FE039804F048FE0E480290C0798006F7
:10087000C00F04F029FE02980399C079084004F0E3
:1008800057FE0DE00020019004F002FE019804F0F4
:1008900033FE019804F018FE019804F049FEFFE7CA
:1008A00004B080BD0E02002080B503484078411E90
:1008B000884104F0D1FD80BD0E02002080B584B0D7
:1008C0001D480068002805D1FFE71B497D20C000B6
:1008D0000860FFE71949002008701948194904F019
:1008E00047FF002807D1FFE7144800781649097828
:1008F00088421ED0FFE71148039001781348019009
:1009000004F088FA0E48029004F0E4FE01460198D3
:1009100004F06AF902990398CB780A4AD3708B786D
:1009200093704B78537009781170007806490870FD
:10093000FFE700BF04B080BD94010020B800002094
:100940002F00002090010020B90000207801002035
:1009500089B0034608A803700791069200780490B6
:10096000042841D80498810001A040588746C04619
:100970008509000099090000AD090000C1090000C7
:10098000D509000006991820C8700420887002203C
:1009900048701A20087028E006991520C8701220A7
:1009A00088701B2048701A2008701EE006991020DD
:1009B000C87018208870172048701620087014E03E
:1009C00006990A20C8700E208870052048701920EA
:1009D00008700AE006991E20C8701D208870192032
:1009E00048700A20087000E0FFE707982049884215
:1009F00007D3FFE7079901201E4A9142039023D3B2
:100A0000FFE707981C49884207D3FFE707990120B1
:100A10001A4A9142039017D3FFE707990020002953
:100A200002900ED0FFE70799FF22F6320120002343
:100A300000939142019001D3009801900198029097
:100A4000FFE702980390FFE703990120014005A802
:100A500001700078C007002807D0FFE706991A2028
:100A6000C870887048700870FFE709B07047C046CA
:100A7000D1070000C5090000E9030000DD05000002
:100A800080B58CB00BAB18700A9109920998089048
:100A900008985C49884203DBFFE75A480890FFE763
:100AA00008987D21C900009104F0F4F901900A989A
:100AB000002104F014FE0099024601981070089875
:100AC00004F0E8F9089108986421029104F0E2F931
:100AD00003900A98012104F002FE0299024603984D
:100AE0001070089804F0D6F9089108980A2104912A
:100AF00004F0D0F905900A98022104F0F0FD049961
:100B0000024605981070089804F0C4F906910A98F6
:100B1000032104F0E4FD069901700BA80078002879
:100B200023D1FFE707A900200870FFE707A8007896
:100B3000022819DCFFE70A9807A9097804F0CFFD1D
:100B40000078002809D1FFE70A9807A9097804F07E
:100B5000C6FD01461A20087000E005E0FFE707988F
:100B6000401C07A90870E1E749E00BA800780128BC
:100B70001FD1FFE70A98002104F0B1FD01461020C3
:100B800008700A98012104F0AAFD01461A20087095
:100B90000A98022104F0A3FD0078002808D1FFE79D
:100BA0000A98022104F09BFD01461A200870FFE715
:100BB00024E00BA8007802281FD1FFE70A98002143
:100BC00004F08DFD0146112008700A98012104F0FF
:100BD00086FD01461A2008700A98022104F07FFD64
:100BE0000078002808D1FFE70A98022104F077FD79
:100BF00001461A200870FFE7FFE7FFE7FFE70CB0A8
:100C000080BDC0460F27000080B5FFF7DDFD80BD29
:100C100083B0B1480068B1498968401A312801D8C9
:100C2000FFE756E1AC480068AC49886002A9FF20A4
:100C30000870AB4800688007C00F002806D1FFE7A6
:100C400002A90878FD2210400870FFE7A548006857
:100C50000007C00F002806D1FFE702A90878FE228E
:100C600010400870FFE79D4900200870487001AAF5
:100C70000121117069460870FFE768460078012875
:100C800069DCFFE79548407901A90978084214D04A
:100C9000FFE7029A01A801780846904388420CD1E8
:100CA000FFE7019A8D480178114301706946097880
:100CB0004118C878401CC870FFE78848427901A8ED
:100CC000017808469043884210D1FFE7029A01A8B4
:100CD000017808469043884208D1FFE768460178CA
:100CE0007E484118C878401CC870FFE77B484279AD
:100CF00001A8017808469043884213D1FFE702A873
:100D0000007801A9097808420CD0FFE7019A7348DE
:100D1000417811434170694609784118C878401CF0
:100D2000C870FFE7684601786C484018C078FA2818
:100D300007DBFFE76846017868484118FA20C87069
:100D4000FFE70198400001A90870FFE70098401CE8
:100D50006946087091E7029960484171C07850284F
:100D600013DBFFE75D48007900280ED1FFE75B4801
:100D70008078C043C007002806D0FFE7574988782D
:100D8000012210438870FFE7FFE754484078C0070E
:100D9000002815D0FFE751488078C043C0070028DD
:100DA00006D0FFE7FA494878012250404870FFE733
:100DB0004A498878FE22104088700020C870FFE7FA
:100DC0004648C078002826D1FFE7444800795028DB
:100DD00021DBFFE741488078C0438007002819D510
:100DE000FFE73E498878022210438870E84840783F
:100DF00000280ED0FFE73C480178012251400170E5
:100E00000078002804D0FFE7384939480860FFE738
:100E1000FFE7FFE7FFE7314840788007002831D53A
:100E2000FFE72E488078C0438007002822D5FFE7DF
:100E30002A48007900281CD0FFE7D54840780028D0
:100E400016D0FFE72B48006800280DD0FFE7FB48CD
:100E50008179491C81718079052804DBFFE7F74916
:100E600000208871FFE7FFE7224923480860FFE779
:100E7000FFE7FFE719498878FD22104088700020BD
:100E80000871FFE71548C078502822DBFFE71348B8
:100E9000007950281DDBFFE710488078C043C00769
:100EA000002815D0FFE70D488078C0438007002850
:100EB0000ED5FFE709498878032210438870DF497F
:100EC000C87980221043C8710C4901200870FFE7DF
:100ED000FFE703B07047C046D00100203400002077
:100EE0001405003014030030680100206C0100205C
:100EF00088130000C4010020B80B0000D8010020B6
:100F000080B5024804F030FA80BDC046BC00002025
:100F10000A4802680A48C179D207920EDF231940B5
:100F20008918C171C27907490878120902231A4049
:100F3000FD231840801808707047C0461404003024
:100F40000E0200207501002080B582B0754800684F
:100F500075490968401A002801D1FFE7E0E07148AF
:100F600000687149086001A90020088000F046FE71
:100F700001466E48018000889B218900884204DC7C
:100F8000FFE701A900200880B3E0684800886849AD
:100F9000884204DCFFE701A901200880A8E063483B
:100FA00000886449884204DCFFE701A90120088029
:100FB0009DE05E4800886049884204DCFFE701A9A3
:100FC0000120088092E0594800885C49884204DC8E
:100FD000FFE701A90120088087E0544800885849AC
:100FE000884204DCFFE701A9012008807CE04F482B
:100FF00000885449884204DCFFE701A901200880E9
:1010000071E04A4800885049884204DCFFE701A9A2
:101010000120088066E0454800884C49884204DC8D
:10102000FFE701A9012008805BE0404800884849AB
:10103000884204DCFFE701A90120088050E03B481A
:1010400000884449884204DCFFE701A901200880A8
:1010500045E0364800884049884204DCFFE701A9A2
:10106000012008803AE0314800883C49884204DC8D
:10107000FFE701A9022008802FE02C4800883849AA
:10108000884204DCFFE701A90220088024E0274809
:1010900000883449884204DCFFE701A90220088067
:1010A00019E0224800883049884204DCFFE701A9A2
:1010B000022008800EE01D4800882C49884204DC8C
:1010C000FFE701A90220088003E001A903200880AE
:1010D000FFE7FFE7FFE7FFE7FFE7FFE7FFE7FFE7E0
:1010E000FFE7FFE7FFE7FFE7FFE7FFE7FFE7FFE7D0
:1010F000FFE71F48407800280BD0FFE72049086829
:10110000019A83181B4A1088C018108000200860BC
:1011100006E0184900200880174918480860FFE7D2
:1011200002B080BDD0010020AC010020BA00002038
:1011300065030000E10300005D04000055050000A8
:101140004D060000C906000045070000C107000069
:101150003E080000BA080000360900002E0A000010
:10116000260B00001E0C0000160D00000F0E0000E4
:101170000E020020BC01002040000020307500005D
:10118000380100200249C879EF221040C871704729
:101190000E02002080B586B02548006825494968C0
:1011A000401A65280FD3FFE72148006821494860AD
:1011B000214802682149C879D207920EDF231840DE
:1011C0008018C871FFE71D49C879FB221040C8711B
:1011D000C879F7221040C871154800681849096F8E
:1011E000401A652822D3FFE711480168144801908E
:1011F0000167007800F002FD0246019805A90A8007
:101200000988001D029004F051F8029804F0E4F9F6
:1012100001460C4A0120002303939142049001DB14
:1012200003980490049808490870FFE706B080BD51
:10123000D001002098010020140400300E0200208C
:10124000BC000020D90400003401002010B582B099
:1012500054482421405C002812D1FFE7534800681D
:1012600050498969401AC0087C2801D8FFE797E0F7
:101270004E4800684B4988612422012088548FE041
:1012800048482421405C012816D1FFE748490868F6
:10129000032292039043012292038018086046497A
:1012A0000868802210430860404800683D49886112
:1012B00024220220885472E03A482421405C02280B
:1012C0000ED1FFE73948006836498969401A152868
:1012D00005D3FFE73349242203208854FFE75DE06C
:1012E00030482421405C032821D1FFE72D4900919B
:1012F00000200875087248728872C872087332221A
:101300000A6208772A4A106803239B039843012343
:10131000DC0300191060274A10680F242407A0433B
:101320005B07C018106024220420885435E01D4853
:101330002421405C04282FD1FFE71A48006A0028C6
:1013400005D1FFE7174924220020885423E01548DF
:10135000007F00281ED0FFE71249087A4A7A8018D9
:101360008A7A8018CA7A821801A802700078097BEC
:1013700088420AD1FFE70B49087A0B4A5071887AF4
:1013800010710A4800688861FFE70649242200209E
:101390008854FFE7FFE7FFE7FFE7FFE7FFE7FFE727
:1013A00002B010BD400100200E020020D00100203C
:1013B00000040030080400302004003080B582B002
:1013C000544801685448016100698D2809D3FFE73A
:1013D00051480069B32804D8FFE74F490020087539
:1013E000FFE74D48017D684601700078012815DB54
:1013F000FFE768460078082810DCFFE74649087ACE
:101400004000087201A800F089F8002805D0FFE725
:101410004149087A401C0872FFE76BE06846007893
:10142000092815DBFFE768460078102810DCFFE785
:101430003949487A4000487201A800F06FF8002846
:1014400005D0FFE73449487A401C4872FFE750E076
:1014500068460078112815DBFFE7684600781828F1
:1014600010DCFFE72C49887A4000887201A800F060
:1014700055F8002805D0FFE72749887A401C887274
:10148000FFE735E068460078192815DBFFE7684676
:101490000078202810DCFFE71F49C87A4000C87296
:1014A00001A800F03BF8002805D0FFE71A49C87AE8
:1014B000401CC872FFE71AE068460078212815DB57
:1014C000FFE768460078282810DCFFE71249087B10
:1014D0004000087301A800F021F8002805D0FFE7BC
:1014E0000D49087B401C0873FFE7FFE7FFE7FFE7B4
:1014F000FFE7FFE70848017D491C0175007D2928A9
:1015000006DBFFE704490020087501200877FFE7A4
:1015100002B080BD0C2200404001002084B0039046
:101520000C4801690020652902900DD3FFE70948A6
:1015300001690120002200928C29019001D30098BA
:10154000019001980290FFE702980121084004B041
:101550007047C0464001002080B5FFF7D1FC80BD38
:1015600080B5024803F002FE80BDC046E0010020C5
:1015700080B5024803F0E3FE80BDC0460E020020A5
:1015800080B5024803F0DBFE80BDC0461802002093
:1015900080B5024803F0D3FE80BDC046040200209F
:1015A00010B582B0224803F0C3FD00283DD0FFE70C
:1015B0002049019108311E4803F074FD019800781C
:1015C000FA282DD1FFE71B48007AF52828D1FFE73C
:1015D00018484078184948701848007800280AD1FF
:1015E000FFE714498A7814488270C978C17040882E
:1015F00013490880FFE70F4882790F498A71C37940
:10160000CA7902242340FD242240D218CA71C2792B
:1016100001200240C879FE2318408018C871FFE7F6
:101620000448092100F00EF8FFE702B010BDC046E3
:10163000E0010020040200200E02002074010020BE
:10164000CC01002083B00290019100200090FFE7C0
:1016500000980199491E88420AD2FFE70299009A30
:10166000881840788854FFE70098401C0090EFE706
:1016700003B0704780B582B000200190FFE7019869
:1016800008281BD8FFE7019A1948815C1948815442
:101690000199405C69460870FFE7174800688006BA
:1016A000002801D4FFE7F8E768460178134802F004
:1016B000EBFBFFE70198401C0190E0E70B48006856
:1016C000002811D1FFE70A48C079C00900280AD0D4
:1016D000FFE70749C8797F221040C8710549C879DA
:1016E0001040C871FFE7FFE702B080BDDC010020B9
:1016F0000E0200201802002014410040004100406A
:1017000080B5FFF72DFFFFF733FFFFF739FFFFF736
:101710003FFF80BD80B584B00F200021029101F011
:10172000C1FA02980390FFE70398C0087C2805D807
:10173000FFE7FFE70398401C0390F5E700200190C6
:1017400001F020FB0199042001F02AFB044905481F
:101750000860054908600B2001F0BAFA04B080BDAA
:10176000A8000020005A6202AC000020F0B581B051
:101770003F200021009101F053FB00990325280729
:1017800010220260254E3160254B1960254C2160E6
:10179000254A1160254904270F60254F07600098EE
:1017A0006D0235601860234B236010600860224A88
:1017B00001211160214A1060214A1060214A106005
:1017C000214A1060214A1160214A052111602149F6
:1017D00008602149086021490860214908602149C1
:1017E00008602149086021490860214908602149B1
:1017F0000860214908602149086011210902204A36
:10180000116020490860204908602049086020498B
:10181000086020495020086001B0F0BD1000003081
:101820000C000030080000300400003018000030C8
:101830000AAA00001100221100020030100200303C
:101840000C020030080200300402003018020030A0
:1018500000030030100300300C0300300803003098
:10186000040300301803003000040030100400307E
:101870000C04003008040030040400301804003068
:1018800000050030100500300C0500300805003060
:101890000405003018050030F0B587B00E9E0D9D90
:1018A0000C9C069605950494039302920191009076
:1018B000009803210907884206D1FFE72F490868ED
:1018C0000122104308603BE000982749884206D176
:1018D000FFE72A4908680222104308602FE00098B9
:1018E0002249884206D1FFE72449086804221043B0
:1018F000086023E000981E49884206D1FFE71F498F
:10190000086808221043086017E0009819498842C7
:1019100006D1FFE7194908681022104308600BE060
:1019200000981549884206D1FFE71449086820222B
:1019300010430860FFE7FFE7FFE7FFE7FFE7FFE788
:101940000598009948600498009988600398009968
:10195000C86002980099086106980099886101980A
:101960000099086007B0F0BD0001003000020030AF
:101970000003003000040030000500302018004053
:1019800080B586B004AA00205071282151801449E6
:10199000118010719071134802900121039101F0A0
:1019A000E5FA039A0298114601F050FC0299086882
:1019B00004221043086008200190032100F014F86D
:1019C000019800F04DF80398000200F013FF029810
:1019D000039902680A43026001F06CFC06B080BD06
:1019E000FFFF00000022004070B582B0019000911E
:1019F0000198002814D4FFE701980321CB43184035
:101A0000164A805801998C07E50EFF24AC40A0438C
:101A1000009CA401E4B2AC4020431940885018E077
:101A200001980F24204008380321CB4318400A4A6C
:101A3000805801998D07EE0EFF25B540A843009D03
:101A4000AD01EDB2B5402843214008391940885016
:101A5000FFE702B070BDC0461CED00E000E400E00E
:101A600081B000900098002808D4FFE700991F205B
:101A700001400120884002490860FFE701B070473B
:101A800000E100E080B584B001AA0020D0712821D7
:101A90009180FA2111805080907110720548009059
:101AA000032101F063FA0098012101F003FC04B066
:101AB00080BDC0460023004080B586B003AA002048
:101AC0000090507128215180107190710121019175
:101AD00011701248029001F027FC019A02981146F9
:101AE00001F028FD0099019A029801F023FD029867
:101AF0000B4A0C49116001F085FD0199029801F033
:101B00005FFD0F20FFF7ACFF0198C00300F072FEED
:101B10000298042101F0B2FD06B080BD002500400E
:101B20000425004040420F0080B584B0012002909F
:101B300040040021019101F009FA0299C80401F062
:101B40007FF901991448039001F0B6FE03981349F8
:101B500001F0CAFE0199039801F0DAFE0199039899
:101B600001F0EAFE0199039801F0FAFE019A039848
:101B70000B4B0C491960102101F038FE019A0398B3
:101B80004F23114601F000FF02990398C90301F0A9
:101B900047FE04B080BDC04600240040204E000037
:101BA0002024004000046CE080B586B00120019044
:101BB0000021029101F0CAF9019A029903A802706A
:101BC000418003490491059102F0ACFD06B080BD4F
:101BD00050C3000080B584B0002001900290052021
:101BE0000390054801A900F09FFB002801D0FFE702
:101BF000FFE704B080BDC0460030004080B584B02F
:101C0000014603A8017001780C48029000F0F7FB30
:101C1000029800F011FCFFE7084800F050FC10218A
:101C20000840102801D0FFE7F6E70448019000F0D3
:101C30002DFC019800F050FC04B080BD0030004045
:101C400080B588B004A8009002F036F80099E12031
:101C5000400204900B48019001F004FF019800211C
:101C60000122039202F042F8142002900321FFF7B0
:101C7000BBFE0298FFF7F4FE0398000500F0BAFDE2
:101C800008B080BD0041004080B58CB000200590B8
:101C9000E121490204910321009109910A900B90DE
:101CA0000E48029004A902F0CBF902980122039297
:101CB000114602F073FB00990B200190FFF794FE90
:101CC0000198FFF7CDFE0398C00200F093FD029843
:101CD000039902F01BFC0CB080BDC04600380040E8
:101CE00081B0002001B07047704781B0002001B082
:101CF0007047C04680B584B013480090032103911B
:101D00000022019200F008FE0098019A039900F069
:101D100082FE019A039902200290012300F0EAFB5F
:101D200001980299039A00F073FC084800F078FDCE
:101D300003990846FFF758FE0398FFF791FE082025
:101D400000F058FD04B080BD00020030FF0F00001D
:101D5000FFE7FEE73E490868401C08603D48006810
:101D6000002805D0FFE73B490868401E0860FFE7F0
:101D70003948006A002805D0FFE73749086A401E45
:101D80000862FFE735480068002805D0FFE73349BF
:101D90000868401E0860FFE731480068002805D049
:101DA000FFE72F490868401E0860FFE72D480068DC
:101DB000002805D0FFE72B490868401E0860FFE7B0
:101DC00029480068002805D0FFE727490868401E19
:101DD0000860FFE725480068002805D0FFE7234991
:101DE0000868401E0860FFE721480068002805D009
:101DF000FFE71F490868401E0860FFE71D480068AC
:101E0000002805D0FFE71B490868401E0860FFE76F
:101E100019480168491C01600068022804D3FFE7E3
:101E2000154900200860FFE7134800681349096856
:101E3000884206D2FFE71349086840221043086031
:101E400005E00F490868402210430860FFE770472B
:101E5000D00100203C010020400100206C01002046
:101E6000A8010020C401002094010020DC01002012
:101E70007001002040000020C8010020D401002093
:101E80001C0500302005003080B582B00020019094
:101E9000104800680007C00F01900198012806D182
:101EA000FFE70C490868082210430860FFE709486B
:101EB00000684007C00F01900198002808D0FFE794
:101EC000FFF77CFA03490868042210430860FFE723
:101ED00002B080BD0022004080B582B00020019099
:101EE00012480068019001A800780007800F0028C0
:101EF0001AD0FFE701A800780007002805D5FFE702
:101F00000A48082101F0BAFBFFE701A80078400762
:101F1000002805D5FFE70548042101F0AFFBFFE7E6
:101F2000024801F06FFBFFE702B080BD00250040D2
:101F300080B586B01C480068039003980E210840C5
:101F40000290029806280ED1FFE718480068019019
:101F500001981E21084001900198002802D0FFE757
:101F6000FFE7FEE7FFE70298042815D1FFE7FFE748
:101F70000F4805A90122002302F006F801900198FC
:101F8000002806D0FFE705A801780A4803F0ACF85E
:101F900000E000E0ECE7FFE70298022801D1FFE74C
:101FA000FFE706B080BDC046084100401441004034
:101FB00000410040E001002080B586B0124802F0E8
:101FC000C7FA039003A80078029002A80078800660
:101FD000002810D5FFE7FFE70B4805A901220023E1
:101FE00002F043FB01900198002801D0FFE700E0D8
:101FF00000E0F1E7FFE702A800784006002801D5DD
:10200000FFE7FFE706B080BD0038004084B004B0B1
:102010007047704780B50248FF2103F0EBF980BD9F
:10202000A001002080B586B04A48817901200029AE
:1020300004901CD0FFE747488179012001290490D2
:1020400015D0FFE7434881790120022904900ED082
:10205000FFE74048817901200329049007D0FFE77A
:102060003C488079001F414248410490FFE70499B1
:102070000120014005A801700078C00700280DD09C
:10208000FFE73548FF2103F0B9FA002805D0FFE744
:102090003148002103F0BAF9FFE70FE00020039078
:1020A00003F06CFA039803F0BBF92B48FF2103F00F
:1020B000A5FA002801D0FFE74AE0FFE72648002103
:1020C00003F09CFA002809D0FFE72348029003F0B0
:1020D00089F90298032103F099F939E01E48032198
:1020E00003F08CFA00280CD0FFE7012003F046FA39
:1020F0001948019003F076F90198042103F086F95C
:1021000025E01548042103F079FA002814D0FFE7F0
:102110001148642103F081FA00280CD0FFE7012068
:1021200003F07EF90C48009003F05CF90098FF2161
:1021300003F06CF9FFE709E00748FF2103F05EFABE
:10214000002802D0FFE700BFFFE7FFE7FFE7FFE758
:1021500006B080BD0E020020A001002080B5FFF770
:1021600059FF80BD80B582B000200190FEF70CF8C9
:10217000FFE7FEF705F9FCE782B03148006803216C
:102180000840019001980090032821D80098810010
:1021900001A040588746C046A9210000B321000095
:1021A000BD210000C72100002648006826490860BC
:1021B00012E024484068244908600DE02148806806
:1021C0002149086008E01F48C0681F49086003E013
:1021D0001D491E480860FFE719480068800700286D
:1021E00009D1FFE71A4800688004820F1649086881
:1021F000D0400860FFE7174800680721084005281D
:1022000008DBFFE7134908680422104303229043C8
:102210000860FFE70C4801680E480268072002408A
:102220000420801AC1400C48016000680B4909680D
:1022300003221140C8400A49086002B07047C046F6
:102240000018004000000020C0010020005A620277
:102250000418004008180040A80000200C18004096
:10226000AC000020FFE706480068C0B2552801D046
:10227000FFE7F8E772B60349034808607047C046B5
:1022800028F00040001A0040A095695A074880478E
:1022900007480047FEE7FEE7FEE7FEE7FEE7FEE74A
:1022A00004480549054A064B7047000065220000B6
:1022B000B10000002802002028050020280300208B
:1022C0002803002081B00090009805490860FFE7CE
:1022D00003480068002801D0FFE7F9E701B0704724
:1022E0003C01002083B002900298002801D1FFE752
:1022F00018E002980190FFE70198002812D0FFE74C
:1023000000200090FFE70098232806D8FFE700BFD1
:10231000FFE70098401C0090F5E7FFE70198401E9A
:102320000190E9E703B0704780B586B0049003914F
:102330000498002803D1FFE7012005901FE0012148
:102340000191880200F094FD01980499C00308608F
:10235000039948684007800C0968C907490D40186F
:102360000849401802900298049908600398806810
:102370001F2108400499886000200590FFE7059818
:1023800006B080BD1080000080B584B00290029835
:10239000002803D1FFE7012003900AE00298002102
:1023A000019101600120800200F062FD019803901C
:1023B000FFE7039804B080BD84B0029001910298B9
:1023C000002803D1FFE70120039015E00298006880
:1023D000009000982021884300900198002805D0A3
:1023E000FFE70098202108430090FFE7009802993A
:1023F000086000200390FFE7039804B0704784B0A2
:10240000029001910298002803D1FFE70120039078
:102410000FE0029801680F2081430091019901406B
:1024200000980843009000980299086000200390EB
:10243000FFE7039804B0704782B00090009800282E
:1024400003D1FFE70120019008E00099086801220C
:1024500012021043086000200190FFE7019802B0CB
:10246000704782B000900098002803D1FFE7012058
:10247000019008E000990868012212029043086068
:1024800000200190FFE7019802B0704783B00190EF
:102490000198002803D1FFE7012002900CE0019889
:1024A000006800900098102108430090009801995E
:1024B000086000200290FFE7029803B0704782B0E6
:1024C0000190019800680090009810210840009049
:1024D000009802B07047C04682B0019001984168F0
:1024E0006846018000880249084002B07047C04633
:1024F000FF0F000085B004900391029201930498AD
:10250000012825D1FFE73C49086800900398012283
:102510008240009890430090029A0398824000986D
:1025200010430090009808603449086800900398B0
:10253000400003228240009890430090019A039843
:102540004000824000981043009000980860FFE728
:102550000498022825D1FFE72949086800900398CC
:1025600001228240009890430090029A0398824092
:102570000098104300900098086022490868009075
:102580000398400003228240009890430090019AF3
:102590000398400082400098104300900098086023
:1025A000FFE70498042825D1FFE717490868009041
:1025B000039801228240009890430090029A039869
:1025C0008240009810430090009808600F49086806
:1025D00000900398400003228240009890430090AE
:1025E000019A0398400082400098104300900098A0
:1025F0000860FFE705B07047041000400411004078
:102600000810004008110040101000401011004058
:1026100084B00390029101920198072864D8FFE7E3
:102620000398002814D1FFE76B49086800900198CF
:1026300080000F228240009890430090029A0198F7
:1026400080008240009810430090009808604AE0A3
:102650000398012814D1FFE75E49086800900198AB
:1026600080000F228240009890430090029A0198C7
:10267000800082400098104300900098086031E08C
:102680000398022814D1FFE7514908680090019887
:1026900080000F228240009890430090029A019897
:1026A000800082400098104300900098086018E075
:1026B0000398032814D1FFE7444908680090019863
:1026C00080000F228240009890430090029A019867
:1026D0008000824000981043009000980860FFE757
:1026E000FFE7FFE7FFE766E00198083801900398ED
:1026F000002814D1FFE73449086800900198800051
:102700000F228240009890430090029A0198800026
:102710008240009810430090009808604AE00398B7
:10272000012814D1FFE7274908680090019880002C
:102730000F228240009890430090029A01988000F6
:1027400082400098104300900098086031E00398A0
:10275000022814D1FFE71A49086800900198800008
:102760000F228240009890430090029A01988000C6
:1027700082400098104300900098086018E0039889
:10278000032814D1FFE70D490868009001988000E4
:102790000F228240009890430090029A0198800096
:1027A000824000981043009000980860FFE7FFE720
:1027B000FFE7FFE7FFE704B07047C0461C13004087
:1027C0001813004014130040101300400C13004075
:1027D00008130040041300400013004081B0009033
:1027E000009A034908689043086001B07047C046EA
:1027F0000014004081B00090009A0349086810431B
:10280000086001B07047C0460014004081B00090DD
:1028100000980249086001B07047C04604120040A9
:1028200081B0009000980249086001B07047C0462E
:102830000812004081B0009000980249086001B081
:102840007047C04610120040014800687047C046FB
:1028500004120040014800687047C046081200405A
:10286000014800687047C0461012004010B584B09F
:10287000079C069C03900291019200930298039991
:102880000860019803994860009803998860069849
:102890000399C86007980399086104B010BD85B01A
:1028A000049003A8017002920078072817DCFFE764
:1028B0000398810001A8017004998968009101784A
:1028C0000F228A400099914300910299007881403B
:1028D0000098084300900098049988601AE00398D3
:1028E000083803A908700398810001A801700499B1
:1028F000C968009101780F228A40009991430091A4
:10290000029900788140009808430090009804994B
:10291000C860FFE705B0704786B0059004A8017055
:102920000392039800900098032803D1FFE7012049
:102930000390FFE70498410002A801700599096817
:102940000191017803228A400199914301910399F1
:10295000007881400198084301900198059908602A
:102960000098012804D0FFE7009803281AD1FFE758
:1029700005984068019004A80078012181400198E1
:10298000884301900098032808D1FFE704A8007845
:1029900001218140019808430190FFE701980599C2
:1029A0004860FFE706B0704784B0039002A801704A
:1029B00001920399496A0091017801228A400099A5
:1029C000914300910199007881400098084300905C
:1029D00000980399486204B0704785B0049003A83A
:1029E000017002A90A700398420068460270049AB6
:1029F00012690192027803239340019A9A4301924B
:102A00000978007881400198084301900198049961
:102A1000086105B0704783B002900191009202985E
:102A2000806A072109048843019A012191400843E3
:102A3000009908430299886203B0704782B0019000
:102A40006846018000880199C86102B0704782B071
:102A500001906846018000880199086202B07047C1
:102A600082B001906846018000880199886102B0B7
:102A7000704781B000900098406980B201B0704703
:102A800081B00449086800903F200860009801B0B8
:102A90007047C0461CF0004081B000900098024989
:102AA000086001B07047C04620F00040054800684B
:102AB000C0B2552804D0FFE7034904480860FFE787
:102AC0007047C04628F0004024F000402D00B39E1F
:102AD00081B0009000980249086001B07047C0467C
:102AE00030F0004083B00290194800681F21084070
:102AF00001900298002809D1FFE701980F2804D01F
:102B0000FFE70198401C0190FFE708E001981028BA
:102B100004D0FFE70198401E0190FFE7FFE701980E
:102B20001F21084001900A490A68E02002400198EC
:102B30001043019001980002FF22120250400090C1
:102B40000098019A1043034A1043086003B070478D
:102B5000A8F000400000B5A684B0039029480168A1
:102B60000722114001910068F0210840029003986B
:102B7000002818D1FFE70198401C01900198072117
:102B800008400190019804280CD1FFE702987028B2
:102B900004D0FFE702981030029002E00320019079
:102BA000FFE7FFE717E00198401E01900198072119
:102BB00008400190019803280CD1FFE70298802873
:102BC00004D0FFE702981038029002E00420019040
:102BD000FFE7FFE7FFE70298F02108400290019924
:102BE00002980843029002980002FF21090248401F
:102BF000009000980299084303490843014908607E
:102C000004B07047ACF0004000003D4C82B0019031
:102C100000910D4800680007C00F002806D1FFE7AB
:102C200009490868094A10430860FFE701980099BC
:102C300008430C21084306490860086880221043B5
:102C4000086002B07047C04604180040080007A59D
:102C5000141800400449086860229043086008681E
:102C600080229043086070471418004084B003909D
:102C700002910192094908680F22104000900398C0
:102C8000029A1043019A1043009A1043044A1043D9
:102C900000900098086004B07047C04604180040D7
:102CA000000007A582B00190009106490868064A15
:102CB0001040009A1043019A1043044A10430860E0
:102CC00002B0704704180040FFCF0000000007A5C5
:102CD00082B001900749086880B200900098064AC7
:102CE00010430090019A009890430090009808606B
:102CF00002B0704704180040000007A581B00090A2
:102D00000C490868FF22904308600B4908680B4A89
:102D1000104008600A4908681040086008680A22E4
:102D2000104308600098074908430749086001B04C
:102D30007047C0460805003010050030F0FFFF0066
:102D4000000500300000379B8018004009490868E2
:102D5000FF2212029043086007490868074A1040A2
:102D6000086007490868104008600868A0221043FE
:102D70000860704708050030100500300FFFFF00A5
:102D80000005003081B000900098034908430349D2
:102D9000086001B07047C04600000A5700180040A4
:102DA00082B001900091019803490860009803499E
:102DB000086002B07047C046081800400C18004078
:102DC0000A4908680F2212049043086008490868FD
:102DD000084A104008600849086810400860086800
:102DE00001225202104308607047C04608050030B7
:102DF00010050030FFFCFF000005003083B002909A
:102E0000019100920198009908430299084380219A
:102E100008430249086003B07047C04610180040DC
:102E200082B001900091019803490860009803491D
:102E3000086002B07047C0462018004024180040C7
:102E400082B0019000910098002806D0FFE7019A17
:102E5000064908681043086005E0019A03490868BC
:102E600090430860FFE702B07047C046201800405A
:102E700082B0019000910098002806D0FFE7019AE7
:102E8000064908681043086005E0019A034908688C
:102E900090430860FFE702B07047C0462418004026
:102EA00083B00290019102980C49086001980C4986
:102EB000086000200090FFE70098092806D8FFE787
:102EC00000BFFFE70098401C0090F5E70349002091
:102ED00008600349086003B07047C04660180040AE
:102EE0006418004082B0019001980A4908600020EF
:102EF0000090FFE70098092806D8FFE700BFFFE72A
:102F00000098401C0090F5E702490020086002B0DC
:102F10007047C0466018004082B0019001980A498D
:102F2000086000200090FFE70098092806D8FFE716
:102F300000BFFFE70098401C0090F5E70249002021
:102F4000086002B07047C0466418004082B001902B
:102F50000091019A0449086890430860009A086843
:102F60001043086002B070474018004080B588B038
:102F70000690059104920698002803D1FFE70120EE
:102F80000790E1E006987249884205D1FFE70121E8
:102F90000804FFF755FFFFE706986E49884205D100
:102FA000FFE701214804FFF74BFFFFE706986A4956
:102FB000884205D1FFE701218804FFF741FFFFE7C1
:102FC00006986649884205D1FFE701210802FFF70C
:102FD00037FFFFE706986249884205D1FFE70121E4
:102FE0004802FFF72DFFFFE706985E49884205D1AA
:102FF000FFE701218802FFF723FFFFE706985A4900
:10300000884205D1FFE70121C802FFF719FFFFE75A
:10301000059800282AD1FFE7049803900399C879FE
:103020008003059A1203104389790902084369460F
:1030300008800398C079012808D1FFE70098039918
:10304000097AC902084369460880FFE76846008894
:103050000699086003988088401E444908400699F4
:103060000861039800880699486065E00598032880
:1030700004D0FFE7059802282ED1FFE704980290BC
:103080000299C8798003059A1203104389790902CD
:103090000843694608800298C079012808D1FFE7F3
:1030A00000980299097AC902084369460880FFE737
:1030B000684600880699086002988088401E2B495F
:1030C00008400699086102980088069948600298AD
:1030D0004088069988602EE0059801282AD1FFE7EC
:1030E00004980190019948798003059A12031043CE
:1030F00009798901084369460880019840790128C7
:1031000008D1FFE7009801998979C9020843694607
:103110000880FFE7684600880699086001984088A3
:10312000401E1249084006990861019800880699D6
:103130004860FFE7FFE7FFE70699086801221043B0
:10314000086000200790FFE7079808B080BDC046E0
:1031500000210040002200400023004000270040E2
:103160000028004000290040002A0040FF0F000016
:1031700080B582B000900098002803D1FFE70120BD
:10318000019052E000990020086000982849884288
:1031900006D1FFE7012000040021FFF751FEFFE701
:1031A00000982449884206D1FFE70120400400210D
:1031B000FFF746FEFFE700981F49884206D1FFE768
:1031C000012080040021FFF73BFEFFE700981B4928
:1031D000884206D1FFE7012000020021FFF730FE00
:1031E000FFE700981649884206D1FFE70120400218
:1031F0000021FFF725FEFFE700981249884206D11B
:10320000FFE7012080020021FFF71AFEFFE7009888
:103210000D49884206D1FFE70120C0020021FFF7D7
:103220000FFEFFE700200190FFE7019802B080BD8C
:103230000021004000220040002300400027004001
:103240000028004000290040002A004086B0049079
:10325000039102920498002803D1FFE70120059012
:1032600025E003980090002804D0FFE7009801288B
:1032700004D007E001A92020087003E001A9102074
:103280000870FFE70298012807D1FFE701A802783C
:10329000049908681043086006E001A802780499C0
:1032A000086890430860FFE700200590FFE7059855
:1032B00006B0704783B0019000910198002803D1B7
:1032C000FFE70120029014E00098012807D1FFE7F2
:1032D000019908680122D2031043086006E00199B1
:1032E00008680122D20390430860FFE700200290A3
:1032F000FFE7029803B0704784B0029001910092FA
:103300000298002803D1FFE70120039008E001980C
:103310000299086000980299086100200390FFE775
:10332000039804B07047000088B00690059104929D
:103330000698002803D1FFE701200790B9E006981E
:103340005D49884207D1FFE75C4908680122120500
:1033500010430860FFE706985949884207D1FFE704
:10336000564908680122520510430860FFE7059896
:10337000002831D1FFE7049803900398027A51495D
:103380000868D207D20A01231B05984380180860F9
:10339000059801030398027B92031143427BD202FA
:1033A0001143827B12021143C07B800101436846B6
:1033B000018000880699086003984089401E4249B0
:1033C00008400699086103980068069948600398C8
:1033D00040680699886064E00598032804D0FFE7F8
:1033E0000598022831D1FFE7049802900298027AEA
:1033F00034490868D207D20A01231B059843801874
:103400000860059801030298027B92031143427BF6
:10341000D2021143827B12021143C07B800101431F
:103420006846018000880699086002984089401E1D
:103430002549084006990861029800680699486085
:1034400002984068069988602AE00598012826D1EC
:10345000FFE704980190019802781A490868D2079A
:10346000D20A01231B0598438018086005980103C0
:1034700001984279920311430279920111438079B4
:10348000400201436846018000880699086001985F
:103490004088401E0C49084006990861FFE7FFE795
:1034A000FFE7069908680122104308600020079092
:1034B000FFE7079808B0704700250040201800403B
:1034C0000026004040180040FF0F000082B000902E
:1034D0000098002803D1FFE70120019020E0009927
:1034E00008680122D2039043086000980E49884280
:1034F00007D1FFE70D4908680122120590430860D3
:10350000FFE700980A49884207D1FFE707490868A2
:103510000122520590430860FFE700200190FFE779
:10352000019802B07047C0460025004020180040B6
:103530000026004085B00390029101920398002874
:1035400003D1FFE70120049037E0029800900028A3
:1035500004D0FFE70098012816D02BE0019801283D
:1035600006D1FFE7039908682022104308600AE0AB
:103570000198002806D1FFE70399086820229043AC
:103580000860FFE7FFE715E00198012806D1FFE793
:10359000039908681022104308600AE00198002887
:1035A00006D1FFE703990868102290430860FFE7FF
:1035B000FFE7FFE700200490FFE7049805B070479D
:1035C00083B0019000910198002803D1FFE701200A
:1035D000029014E00098012807D1FFE701990868DC
:1035E0000122D2031043086006E001990868012215
:1035F000D20390430860FFE700200290FFE70298A3
:1036000003B0704782B000900098002803D1FFE714
:103610000120019008E00099086808680122104321
:10362000086000200190FFE7019802B0704785B064
:10363000039002A8017001A802800398002803D11A
:10364000FFE70120049016E002A80078009000280F
:1036500004D0FFE70098012805D009E001A8008800
:103660000399486004E001A8008803998860FFE797
:1036700000200490FFE7049805B0704783B00190E4
:10368000684601700198002803D1FFE701200290ED
:103690000AE0684602780D2002400199086810434C
:1036A000086000200290FFE7029803B0704781B0E5
:1036B000009000980068C0B201B0704781B00090DF
:1036C0000098C06801B0704783B0019000910198E4
:1036D000002803D1FFE70120029035E001981C4942
:1036E000884207D1FFE71B4908680122D204104332
:1036F0000860FFE70099086800034A6892031043D6
:103700008A68D2021043C968890108430199086098
:103710000098008A019948600098408A0199886061
:103720000098808A0199C8600098C08A0199086150
:103730000098008B01998861019908680122104363
:10374000086000200290FFE7029803B07047C0466F
:10375000002400402018004082B00090009800280B
:1037600003D1FFE70120019014E0009908680122CD
:10377000D2039043086000980849884207D1FFE7C8
:10378000074908680122D20490430860FFE700203F
:103790000190FFE7019802B07047C0460024004046
:1037A0002018004084B002900191009202980028F5
:1037B00003D1FFE70120039014E00198012806D10E
:1037C000FFE7009A0299886A1043886207E0009A2E
:1037D0000299886A90437F2210408862FFE70020A8
:1037E0000390FFE7039804B07047C04684B002908E
:1037F000019100920298002803D1FFE70120039075
:1038000009E00198009908430449084302990860B7
:1038100000200390FFE7039804B0704701200000E8
:1038200083B0019000910198002803D1FFE70120A7
:10383000029016E000980121C903884207D1FFE7F2
:10384000019908680122D2031043086006E001993B
:1038500008680122D20390430860FFE7002002902D
:10386000FFE7029803B0704786B00490039102927C
:1038700001930498002803D1FFE70120059015E08B
:103880000298019908430B490843009003980128C6
:1038900006D1FFE700983F21090208430090FFE7A7
:1038A00000980499086200200590FFE7059806B08B
:1038B0007047C04600006CE083B001900091019811
:1038C000002803D1FFE70120029007E00098054996
:1038D00008400199886100200290FFE7029803B038
:1038E0007047C046FF0F000083B00190009101981F
:1038F000002803D1FFE70120029006E06846008817
:103900000199486000200290FFE7029803B07047D9
:1039100083B0019000910198002803D1FFE70120B6
:10392000029006E0684600880199886000200290B5
:10393000FFE7029803B0704783B0019000910198AF
:10394000002803D1FFE70120029006E068460088C6
:103950000199C86000200290FFE7029803B0704709
:1039600083B0019000910198002803D1FFE7012066
:10397000029006E0684600880199086100200290E4
:10398000FFE7029803B0704786B00490039102925B
:1039900001930498002803D1FFE70120059018E067
:1039A0000498006800900098032109028843009061
:1039B00003990298014300980843009000980499E5
:1039C0000860019804490840049948620020059065
:1039D000FFE7059806B07047FF03000083B0019031
:1039E00000910198002803D1FFE70120029005E033
:1039F00000980199086300200290FFE7029803B045
:103A0000704784B00290019100920298002803D17F
:103A1000FFE70120039008E00198029948630098AD
:103A20000299886300200390FFE7039804B0704771
:103A300083B0019000910198002803D1FFE7012095
:103A4000029005E000980199C86200200290FFE70B
:103A5000029803B0704781B000900098C06A01B02E
:103A60007047000080B588B0069005910698002840
:103A700003D1FFE701200790BAE006985E4988422B
:103A800005D1FFE704200121FFF7F2F9FFE70698CF
:103A90005A49884205D1FFE708200121FFF7E8F9DC
:103AA000FFE7FFE706984069C007002805D0FFE759
:103AB0000698006804A90870F4E7FFE706984069D3
:103AC0008006002801D4FFE7F8E706990020486047
:103AD0000699C860069908610698406904A9029190
:103AE0000870069880680870454800684549086075
:103AF00006980599096800F087F802990698C06849
:103B000040221040087005984068039003281BD895
:103B10000398810001A040588746C0462D3B000015
:103B20002F3B00003B3B0000473B000012E00498A5
:103B30000121084304A908700CE0049802210843FD
:103B400004A9087006E0FFE704980321084304A9CC
:103B50000870FFE705988068002801D1FFE72CE096
:103B600004980821084304A9087005988068401E3D
:103B7000019003281FD80198810001A04058874672
:103B8000913B0000933B00009F3B0000AB3B0000DB
:103B900012E004981021084304A908700CE004986E
:103BA0002021084304A9087006E004983021084346
:103BB00004A9087000E0FFE7FFE70598C0680090DF
:103BC00000280AD0FFE70098012807D1FFE70498F2
:103BD0000421084304A9087001E0FFE7FFE704A8F7
:103BE00000787F2108400699C86000200790FFE711
:103BF000079808B080BDC04600400040004100402A
:103C0000AC000020B000002080B588B0079006917D
:103C100010480068059006984001049005980499A2
:103C200001F02EF903900598039A04995143401A24
:103C3000019001980002049901F022F9029003A872
:103C400000880799086202A800780799486208B0BE
:103C500080BDC046B000002080B584B002900298BC
:103C6000002803D1FFE7012003901EE002981049CD
:103C7000884209D1FFE704200190FFF74DF9019830
:103C80000021FFF7F5F8FFE702980A49884209D1B9
:103C9000FFE708200090FFF73FF900980021FFF7A9
:103CA000E7F8FFE700200390FFE7039804B080BD2A
:103CB000004000400041004082B000900098002881
:103CC00003D1FFE7012001900DE000994B20400255
:103CD00008600099032048600099002088600099DE
:103CE000C8600190FFE7019802B0704786B0049069
:103CF000039102920498002803D1FFE70120059068
:103D000031E003980090032818D80098810001A0A2
:103D100040588746253D00002B3D0000313D000006
:103D2000373D00000120019008E00220019005E0ED
:103D30000420019002E008200190FFE7029801288A
:103D400006D1FFE7019A049948681043486007E0EC
:103D5000019A0499486890430F2210404860FFE799
:103D600000200590FFE7059806B0704786B00490E4
:103D7000039102920498002803D1FFE701200590E7
:103D800037E00398009003281CD80098810001A018
:103D900040588746A53D0000AD3D0000B53D000000
:103DA000BD3D000001A9102008700CE001A9082009
:103DB000087008E001A90420087004E001A90C20A3
:103DC000087000E0FFE70298012807D1FFE701A88B
:103DD0000278049908691043086107E0019A049980
:103DE000086990431C2210400861FFE700200590FD
:103DF000FFE7059806B0704783B0019068460170F0
:103E00000198002803D1FFE7012002900CE06846EA
:103E10000078072805DCFFE7684600780199086309
:103E2000FFE700200290FFE7029803B0704782B0DE
:103E300000900098002803D1FFE70120019007E0DF
:103E40000099C86840221043C86000200190FFE735
:103E5000019802B0704781B00090009840697F21BE
:103E6000084001B0704782B0009000984069400659
:103E7000002803D5FFE70020019002E00120019017
:103E8000FFE7019802B0704783B001906846017067
:103E90000198002803D1FFE70120029006E0684660
:103EA00000780199086000200290FFE7029803B0B3
:103EB000704781B0009000980068C0B201B07047B0
:103EC00080B588B0079006910592049306980090FB
:103ED00005980390002002900498012834D1FFE750
:103EE000FFE70398002825D0FFE726480190FFE769
:103EF000079840698006002809D4FFE70198002848
:103F000001D1FFE703E00198401E0190F0E701981E
:103F1000002801D1FFE70DE0079800994A1C0092A4
:103F20000978FFF7B1FF0398401E03900298401CE8
:103F30000290D6E7FFE7079840694006C00F0028C7
:103F400001D1FFE7F7E71AE0FFE70398002815D053
:103F5000FFE7079840698006002801D4FFE70DE0DD
:103F6000079800994A1C00920978FFF78DFF039883
:103F7000401E03900298401C0290E6E7FFE702987B
:103F800008B080BDFFFF000080B588B007900691A3
:103F900005920493069800900598039000200290E3
:103FA000049801282BD1FFE7FFE70398002825D0CC
:103FB000FFE722480190FFE707984069C007002803
:103FC00009D1FFE70198002801D1FFE703E001983C
:103FD000401E0190F0E70198002801D1FFE70DE0B5
:103FE0000798FFF766FF00994A1C00920870039833
:103FF000401E03900298401C0290D6E71AE0FFE7AB
:104000000398002815D0FFE707984069C0070028EB
:1040100001D1FFE70DE00798FFF74BFF00994A1C1D
:10402000009208700398401E03900298401C029072
:10403000E6E7FFE7029808B080BDC046FFFF00003A
:1040400080B588B0069005910698002803D1FFE757
:10405000012007907EE006984049884209D1FFE799
:10406000012103910846FEF703FF0398FEF754FF72
:10407000FFE706983A49884209D1FFE702200290FB
:104080000121FEF7F5FE0298FEF746FFFFE70698CE
:104090003449884209D1FFE7102001900121FEF741
:1040A000E7FE0198FEF738FFFFE706982E498842A1
:1040B00009D1FFE7202000900121FEF7D9FE0098EA
:1040C000FEF72AFFFFE7294800682949086006989B
:1040D000059A5168126800F04DF8059A50688007FB
:1040E000000C91698907890C401851694907090D2D
:1040F00040189168C907C90D4118D068C0071269F6
:1041000092071043000E4018C01C049004980699B2
:104110000860069948680422904348600598C06981
:10412000C007420F069948681043486006994868DE
:104130000822904348600698052100F041F806984F
:1041400000F072F80490069800F06EF804900020D9
:104150000790FFE7079808B080BDC04600380040D0
:1041600000390040003A0040003B0040AC00002015
:10417000B400002080B588B007900691059206989B
:10418000002803D1FFE71020029002E002200290F5
:10419000FFE70A4800680490059803900498029984
:1041A00000F06EFE039900F06BFE401E019001A826
:1041B00000880799086108B080BDC046B40000209F
:1041C00085B0039002910398002803D1FFE70120F6
:1041D000049026E00298C01E0090032818D800988A
:1041E000810001A040588746F9410000FF410000CE
:1041F000054200000B420000102001900BE020203F
:10420000019008E04020019005E08020019002E04C
:104210000120049005E001980399C86000200490F3
:10422000FFE7049805B0704781B00090009840699E
:10423000C0B201B07047C04680B586B00490049803
:10424000002803D1FFE7012005903AE004981E49B9
:10425000884209D1FFE701200390FEF75DFE039835
:104260000021FEF705FEFFE704981849884209D1AE
:10427000FFE702200290FEF74FFE02980021FEF7B2
:10428000F7FDFFE704981249884209D1FFE71020A3
:104290000190FEF741FE01980021FEF7E9FDFFE7DE
:1042A00004980C49884209D1FFE720200090FEF7CE
:1042B00033FE00980021FEF7DBFDFFE700200590AC
:1042C000FFE7059806B080BD003800400039004087
:1042D000003A0040003B004082B000900098002867
:1042E00003D1FFE7012001900FE000990020486012
:1042F000009A4B2149021160009A032151610099F3
:1043000088610099C8610190FFE7019802B0704789
:1043100082B000900098002803D1FFE701200190AF
:1043200016E0009801214160009A4B204002106085
:10433000009A03205061009A00209061009AD06199
:10434000009A9060009AD060009A11610190FFE796
:10435000019802B0704782B000900098002803D105
:10436000FFE70120019015E0009903204860009AC2
:104370004B21490211600099486100990020886131
:104380000099C861009988600099C8600099086127
:104390000190FFE7019802B07047C04686B00490D4
:1043A00003910292002001900498002803D1FFE7B6
:1043B0000120059033E003980090032818D8009856
:1043C000810001A040588746D9430000DF43000028
:1043D000E5430000EB4300000420019008E00820C2
:1043E000019005E01020019002E020200190FFE7FD
:1043F0000298012806D1FFE7019A04990868104342
:10440000086009E00198C2433C20C043024304997C
:10441000086810400860FFE700200590FFE7059856
:1044200006B0704786B004900391029201A9002063
:1044300008800498002803D1FFE7012005905FE081
:1044400003980090092843D80098810001A04058A3
:104450008746C0467D440000854400008D4400002E
:10446000954400009D440000A5440000AD440000B8
:10447000B5440000BD440000C744000001A901206C
:10448000088026E001A90220088022E001A904207A
:1044900008801EE001A9082008801AE001A9102068
:1044A000088016E001A92020088012E001A9402020
:1044B00008800EE001A9802008800AE001200002A7
:1044C00001A9088005E00120400201A9088000E060
:1044D000FFE70298012807D1FFE701A802880499A5
:1044E00048681043486008E00198C2430648024308
:1044F0000499486810404860FFE700200590FFE7F6
:10450000059806B07047C04600FCFFFF83B00190DD
:1045100000910198002803D1FFE70120029014E0E8
:104520000098012807D1FFE701994868012252024B
:104530001043486006E00199486801225202904306
:104540004860FFE700200290FFE7029803B0704741
:1045500081B000900098C068C0B201B0704782B0CE
:1045600000900098C0680006002803D5FFE70020EF
:10457000019002E001200190FFE7019802B070472E
:1045800083B00190684601700198002803D1FFE7CD
:104590000120029006E068460078019948610020F9
:1045A0000290FFE7029803B0704780B588B007908B
:1045B000069105920493069800900598039004983C
:1045C000012832D1FFE700200290FFE7039800287E
:1045D0002AD0FFE7079800994A1C00920978FFF754
:1045E000CFFF0020C0430190FFE70798C068400656
:1045F000002809D4FFE70198002801D1FFE703E074
:104600000198401E0190F0E70198002801D1FFE7D2
:104610000AE007980521FFF7D3FD0398401E039099
:104620000298401C0290D1E71CE000200290FFE7B6
:104630000398002815D0FFE70798C06800060028F7
:1046400001D4FFE70DE0079800994A1C0092097811
:10465000FFF796FF0398401E03900298401C0290BB
:10466000E6E7FFE7029808B080BD80B588B0079004
:10467000069105920493069800900598039004987B
:1046800001282ED1FFE700200290FFE703980028C1
:1046900026D0FFE70020C0430190FFE70798C068DD
:1046A0008006002809D4FFE70198002801D1FFE720
:1046B00003E00198401E0190F0E70198002801D125
:1046C000FFE70DE00798FFF7AFFD00994A1C009245
:1046D00008700398401E03900298401C0290D5E792
:1046E0001DE000200290FFE70398002816D0FFE7A6
:1046F0000798C0688006002801D4FFE70EE00798FD
:10470000FFF792FD00994A1C009208700298401C25
:1047100002900398401E0390FFE7E5E7FFE7029849
:1047200008B080BD80B584B002900020019002984E
:10473000002803D1FFE7012003902AE0012148046B
:10474000FEF796FB0298406813490840134A106030
:1047500002988068084012490860029840880190D9
:1047600002980078012806D1FFE701983F218902CD
:104770008843019005E001982521890208430190B2
:10478000FFE70198074908430749086000200390A4
:10479000FFE7039804B080BDFFFFFF00081A004048
:1047A000101A0040A001695A001A0040024903484B
:1047B000086000207047C046001A0040A095695A62
:1047C00085B004900391002002900190049800901D
:1047D000002804D0FFE70098012803D005E004205A
:1047E000019002E008200190FFE70D48006880B2C8
:1047F0000C49401802900398012805D1FFE7019960
:1048000002980843029004E00199029888430290BC
:10481000FFE7029802490860002005B07047C046D3
:10482000001A00400000695A02496A20086000200E
:104830007047C046141A004082B001900D480068CD
:1048400080B2009000980D21490108430090019822
:10485000012806D1FFE700983F2109018843009015
:10486000FFE700980449084302490860002002B0AD
:104870007047C046001A00400000695A81B000909D
:10488000009802490860002001B07047041A0040F7
:10489000014800687047C046041A0040014800689B
:1048A0007047C0460C1A004084B0039002910192F8
:1048B00003990091002088600298C217120F821895
:1048C000F0231A40801A08750198C217120F821837
:1048D0001A40801A48750298C217120F80180009F2
:1048E0000002032212078018C8600198C3171B0F2B
:1048F000C0180009000280180861FFE70099C86825
:1049000040680B7D01229A409043C9684860FFE7E8
:10491000FFE70099C86800680A7D530003229A40A7
:10492000904301229A401043C9680860FFE7FFE7FF
:104930000099086940684B7D01229A4090430969BB
:104940004860FFE7FFE70099086900684A7D530067
:1049500003229A40904301229A401043096908605B
:10496000FFE7009804B0704780B582B001900198CD
:1049700000F002F802B080BD80B584B003900398C7
:10498000019000217F22029200F0C2F90198029A60
:10499000012100F0BDF90198029A022100F0B8F956
:1049A0000198029A032100F0B3F904B080BD80B5EC
:1049B00086B0059004A801700598019003A9002015
:1049C0000870FFE703A8007807283BDCFFE7FFE754
:1049D00001990A7D01209040C9680862FFE70A201A
:1049E000FDF780FC04A80078C007002809D0FFE785
:1049F000FFE701994A7D012090400969C861FFE7FE
:104A000008E0FFE701994A7D0120904009690862AA
:104A1000FFE7FFE70A20FDF765FC04A908784008D6
:104A20000870FFE701990A7D01209040C968C861BC
:104A3000FFE70A20FDF756FCFFE70398401C03A997
:104A40000870BFE7FFE701990A7D01209040C9681F
:104A50000862FFE70A20FDF745FCFFE701994A7D60
:104A6000012090400969C861FFE7FFE701990A7DCD
:104A700001209040C968C861FFE7FFE70199086914
:104A800000684A7D530003229A40904309690860F8
:104A9000FFE7FFE7019908694069497DC840C00701
:104AA000002830D0FFE70298411C02A8017000786E
:104AB000C8281BD1FFE7FFE70199086900684A7D14
:104AC000530003229A40904301229A4010430969FF
:104AD0000860FFE7FFE701994A7D012090400969DE
:104AE0000862FFE702A900200870FFE7FFE70199CD
:104AF000086900684A7D530003229A40904309697F
:104B00000860FFE7C6E70A20FDF7ECFBFFE7019925
:104B1000086900684A7D530003229A4090430122AD
:104B20009A40104309690860FFE706B080BD80B570
:104B300082B0019001980090FFE700990A7D012062
:104B40009040C968C861FFE70A20FDF7CBFBFFE78B
:104B500000994A7D012090400969C861FFE70A2059
:104B6000FDF7C0FBFFE700994A7D012090400969ED
:104B70000862FFE70A20FDF7B5FBFFE700990A7D11
:104B800001209040C9680862FFE702B080BD80B58F
:104B900082B0019001980090FFE700994A7D0120C2
:104BA000904009690862FFE7FFE700990A7D01204C
:104BB0009040C9680862FFE70A20FDF793FBFFE712
:104BC00000990A7D01209040C968C861FFE70A206A
:104BD000FDF788FBFFE700994A7D012090400969B5
:104BE000C861FFE702B080BD80B586B00590049132
:104BF0000598019002A900200870FFE702A800783C
:104C000003280CDCFFE7049802A90A78805C03A95A
:104C10008854FFE70298401C02A90870EEE701984B
:104C200003A900F037F80198FFF781FF01984021B0
:104C3000FFF7BDFE0198FFF7AAFF0198FFF777FF86
:104C400001984178FFF7B3FE02A900200870FFE742
:104C500002A8007803280DDCFFE7019802A90A7872
:104C600003A9895CFFF7A3FEFFE70298401C02A995
:104C70000870EDE70198FFF78AFF0198FFF757FFEB
:104C800001988178FFF793FE0198FFF780FF06B047
:104C900080BDC04684B0039002910398009001A9A2
:104CA00000200870FFE701A8007803282CDCFFE74C
:104CB000029801A9097840567F2806D1FFE702999A
:104CC00001A802780020885407E0029901A8027820
:104CD0008B560E48C05C8854FFE70098007901A904
:104CE0000978C840C007002808D0FFE7029901A84A
:104CF0000278885C802318438854FFE7FFE7019817
:104D0000401C01A90870CEE704B0704710000020D5
:104D100080B586B0059004A80090017003A90A70C0
:104D2000059801900022895600F03AF80099024651
:104D3000019802AB1A7000790978C840C0070028B2
:104D400006D0FFE702988021084302A90870FFE718
:104D50000198FFF7ECFE01984421FFF728FE019827
:104D6000FFF715FF0198FFF7E2FE019804A9097803
:104D7000C0221143FFF71BFE019802A90978FFF733
:104D800016FE0198FFF703FF0198FFF7D0FE019888
:104D90008178FFF70CFE0198FFF7F9FE06B080BDA1
:104DA00082B0019068460170002140567F2804D1EE
:104DB000FFE769460020087006E0002069460A56B1
:104DC0000448805C0870FFE700216846405602B046
:104DD0007047C0461000002010B584B0039002A8B0
:104DE000017001A802706846037003990198087069
:104DF0000098487002988830887004B010BD82B066
:104E00000190684601700199007801221040C87035
:104E100002B0704782B00190684601700199009815
:104E2000087102B07047034610B50B439B070FD1C2
:104E3000042A0DD308C810C9121FA342F8D018BA0B
:104E400021BA884201D9012010BD0020C04310BD05
:104E5000002A03D0D30703D0521C07E0002010BD66
:104E600003780C78401C491C1B1B07D103780C7875
:104E7000401C491C1B1B01D1921EF1D1184610BDCC
:104E8000002203098B422CD3030A8B4211D3002347
:104E90009C464EE003460B433CD4002243088B4221
:104EA00031D303098B421CD3030A8B4201D39446AE
:104EB0003FE0C3098B4201D3CB01C01A52418309A1
:104EC0008B4201D38B01C01A524143098B4201D35B
:104ED0004B01C01A524103098B4201D30B01C01A86
:104EE0005241C3088B4201D3CB00C01A5241830800
:104EF0008B4201D38B00C01A524143088B4201D32D
:104F00004B00C01A5241411A00D20146524110468C
:104F100070475DE0CA0F00D04942031000D3404201
:104F200053409C46002203098B422DD3030A8B4237
:104F300012D38901FC2212BA030A8B420CD38901D5
:104F400092118B4208D3890192118B4204D38901BB
:104F50003AD0921100E08909C3098B4201D3CB01F9
:104F6000C01A524183098B4201D38B01C01A5241AE
:104F700043098B4201D34B01C01A524103098B42B2
:104F800001D30B01C01A5241C3088B4201D3CB009D
:104F9000C01A524183088B4201D38B00C01A524180
:104FA000D9D243088B4201D34B00C01A5241411A57
:104FB00000D201465241104663465B1001D3404285
:104FC000002B00D54942704763465B1000D3404236
:104FD00001B50549002802DC491C084000E00846EC
:104FE000C046C04602BD00BFFFFFFF7F704770474D
:104FF0007047000008487CB5784400900748784422
:10500000009C0546019004E020460168081880478E
:10501000241DAC42F8D17CBDB0070000BE070000E3
:10502000754600F025F8AE46050069465346C008AF
:10503000C000854618B020B5FDF732F960BCB64611
:1050400000260027C0C5C0C5C0C5C0C5C0C5C0C5F5
:10505000C0C5C0C5403D490849008D46704710B5E0
:105060000446C046C0462046FBF77DF810BD000050
:10507000004870474800002001491820ABBEFEE7F9
:1050800026000200704782B00190009100980199BB
:10509000C278CA7082788A7042784A700078087044
:1050A00002B0704783B0019000910198008C019983
:1050B000498C884204D1FFE702A9002008700FE064
:1050C0000198418C405C009908700198408C401C0C
:1050D0001F2108400199488402A901200870FFE7B8
:1050E00002A8007803B0704784B0029001A8017054
:1050F0000298008C411C1F200140684601800088F6
:105100000299498C884204D1FFE703A90020087066
:105110000AE0019802990A8C885400980299088440
:1051200003A901200870FFE703A8007804B07047C6
:1051300082B000900098008C0099498C884208DB6E
:10514000FFE70098008C0099498C401A01A908805B
:1051500008E00098418C0098008C401A203001A98A
:105160000880FFE701A8008802B0704781B0009076
:10517000009800210184418401B0704781B06946E4
:10518000087001B0704789B008900791069201201D
:105190000590FFE70598069988423CD2FFE70798FB
:1051A00005994900405A04A9088005980390FFE733
:1051B000039900200029029013D0FFE70799039874
:1051C00040004018801E018804A8028801200023A6
:1051D00000939142019001DC0098019001980290A7
:1051E000FFE70298C00700280BD0FFE70799039854
:1051F00042008818801E008888520398401E039041
:10520000D6E704980799039A52008852FFE7059859
:10521000401C0590BEE709B0704780B58CB00B907C
:105220000B980290C06900281BD1FFE700200A906C
:105230000990FFE7099809280CD8FFE70298099917
:105240004900415A0A9840180A90FFE70998401C03
:105250000990EFE70A980A21FFF712FE02990884E5
:1052600022E00298C06901281DD1FFE700200390C9
:10527000FFE7039809280BD8FFE7029803994A0033
:10528000805A04A98852FFE70398401C0390F0E776
:10529000029804A901910A22FFF775FF019802996B
:1052A00040890884FFE7FFE70CB080BD80B584B07B
:1052B000039002A801800398019002994269531C4F
:1052C00043615200815240690A2804D3FFE70199E3
:1052D00000204861FFE701988069092805D8FFE7A9
:1052E00001998869401C8861FFE7019880690A2854
:1052F00004D1FFE70198FFF790FFFFE704B080BDFE
:1053000085B00390029103990091049100204861B7
:105310008861029ACA6108840190FFE70198092810
:105320000AD8FFE700990198420000208852FFE761
:105330000198401C0190F1E7049805B0704784B0D3
:105340000290029803900146093100910190FFE715
:105350000198009900220270401C88420190F7D108
:10536000FFE7039804B0704780B584B003900398BA
:105370000190052101700621417007218170001DF7
:1053800000210291FFF7BCFF019802992830FFF736
:10539000B7FF019802994C30FFF7B2FF01980299CC
:1053A00001677422815404B080BD84B0009101462D
:1053B0000098039102A9087001A8027003980A7866
:1053C000017801231A40FE23194089180170019ABF
:1053D0000178D207920FFD2319408918017004B09B
:1053E0007047000081B00090009983480068086011
:1053F00001B0704782B001906846017001987E4903
:10540000096801600099017102B0704782B0019093
:105410006846017001980099017102B07047000060
:1054200081B00146684601700078C007002806D0A8
:10543000FFE70849086801221043086005E00449B5
:105440000868012210430860FFE701B07047C046BA
:105450001C0200302002003081B001466846017015
:105460000078C007002806D0FFE708490868102226
:105470001043086005E004490868102210430860E2
:10548000FFE701B07047C0461C0500302005003022
:1054900081B00146684601700078C007002806D038
:1054A000FFE70849086804221043086005E0044942
:1054B0000868042210430860FFE701B07047C04647
:1054C0001C0000302000003081B0014668460170A9
:1054D0000078C007002806D0FFE72249086810229C
:1054E0001043086005E01E49086810221043086058
:1054F000FFE701B07047C04681B0014668460170C1
:105500000078C007002806D0FFE708490868402255
:105510001043086005E00449086840221043086011
:10552000FFE701B07047C0461C0400302004003083
:1055300081B00146684601700078C007002806D097
:10554000FFE70849086820221043086005E0044985
:105550000868202210430860FFE701B07047C0468A
:105560001C0300302003003081B06946087001B090
:10557000704781B06946087001B0704781B001463C
:10558000684601700078C007002818D0FFE710486F
:10559000807904280ED1FFE70E480078002804D057
:1055A000FFE70A490120086003E00849022008607B
:1055B000FFE703E0054902200860FFE703E0034935
:1055C00000200860FFE701B07047C046D40100200A
:1055D0000E0200203401002081B000900098008C61
:1055E00001B0704781B000900099034800680968D5
:1055F000401A01B07047C046D001002083B000912E
:1056000001460098029101A9087002980079097872
:10561000401A4142484103B0704780B584B00390BE
:1056200002910398FFF7DEFF0146029A0120002352
:1056300000939142019001D200980190019804B02A
:1056400080BD80B582B00190019800F003F8001D84
:1056500002B080BD81B00090009801B0704780B565
:1056600082B001900198FFF7F5FF02B080BD81B0D4
:105670000090009801B0704780B582B00190019809
:1056800000F010F802B080BD80B584B003900291A4
:105690000192009303980199029A121A00F00AF8F5
:1056A00004B080BD80B582B001900198FFF7DFFFA4
:1056B00002B080BD80B584B0039002910192019840
:1056C000009003980299009AFFF7ADFB41424841D0
:1056D00004B080BD81B00090009801B0704782B0E6
:1056E0000190009101980099401802B0704780B570
:1056F00086B003AB00931346009A019303460198CA
:1057000093605160106090685168126800F002F870
:1057100006B080BD80B586B00490039102920498D3
:10572000FFF7AAFF01900398FFF7A6FF00900298E9
:10573000FFF7A2FF00990246019805ABFFF7A4FF0F
:1057400006B080BD80B584B0039002910398FFF746
:1057500086FF01900398FFF774FF00900298FFF70F
:105760007EFF009902460198FFF7C1FF04B080BD9B
:1057700080B582B00190009101980099FFF7E2FF97
:105780000121484002B080BD0D121213C057000025
:1057900000000020480000000C0100000858000034
:1057A00048000020E00400002C01000015B0FFFFBD
:1057B00059B4FFFFA5BDFFFF49BFFFFFA1C9FFFF10
:1057C000005A62020024F40000800000409C0000A7
:1057D0003F065B4F666D7D077F6F777C395E797121
:1057E00078765C5040665406743E005E1C073F1A93
:1057F0001A1A1A000000000000FF0000000000005C
:085800003075000000000000FB
:020000041FFFDC
:10F2000073A2C869FFFF0000FFFF0000DB96FFFF4D
:10F21000FFAAFFFFFFFFFFFFFFFFFFFFFFFFFFFF53
:10F22000FFFFFFFFFFFFFFFFFFFFFFFFFFFFFFFFEE
:10F23000FFFFFFFFFFFFFFFFFFFFFFFFFFFFFFFFDE
:04F24000FFFFFFFFCE
:020000041FFFDC
:10F40000E2E2E2E2FFFFFFFFFFFFFFFFFFFFFFFF80
:10F41000FFFFFFFFFFFFFFFFFFFFFFFFFFFFFFFFFC
:10F42000FFFFFFFFFFFFFFFFFFFFFFFFFFFFFFFFEC
:10F43000FFFFFFFFFFFFFFFFFFFFFFFFFFFFFFFFDC
:10F44000FFFFFFFFFFFFFFFFFFFFFFFFFFFFFFFFCC
:10F45000FFFFFFFFFFFFFFFFFFFFFFFFFFFFFFFFBC
:10F46000FFFFFFFFFFFFFFFFFFFFFFFFFFFFFFFFAC
:10F47000FFFFFFFFFFFFFFFFFFFFFFFFE2E2E2E210
:020000041FFFDC
:10F60000E3E3E3E3FFFFFFFFFFFFFFFFFFFFFFFF7A
:10F61000FFFFFFFFFFFFFFFFFFFFFFFFFFFFFFFFFA
:10F62000FFFFFFFFFFFFFFFFFFFFFFFFFFFFFFFFEA
:10F63000FFFFFFFFFFFFFFFFFFFFFFFFFFFFFFFFDA
:10F64000FFFFFFFFFFFFFFFFFFFFFFFFFFFFFFFFCA
:10F65000FFFFFFFFFFFFFFFFFFFFFFFFFFFFFFFFBA
:10F66000FFFFFFFFFFFFFFFFFFFFFFFFFFFFFFFFAA
:10F67000FFFFFFFFFFFFFFFFFFFFFFFFE3E3E3E30A
:04000005000000B146
:00000001FF
