:020000040000FA
:10000000E0050020D91E0000E11E0000E31E0000F4
:1000100000000000000000000000000000000000E0
:10002000000000000000000000000000E51E0000CD
:100030000000000000000000E71E0000611A000040
:10004000EB1E0000EB1E0000EB1E0000EB1E00008C
:10005000EB1E0000EB1E0000EB1E0000EB1E00007C
:10006000651B0000EB1E0000EB1E0000951C00004D
:10007000EB1E0000EB1E0000EB1E0000B51B000095
:10008000EB1E0000E91C0000EB1E0000EB1E000050
:100090000D1C0000EB1E0000EB1E0000EB1E00001C
:1000A000EB1E0000EB1E0000EB1E0000EB1E00002C
:1000B00000F002F800F050F812A030C808382418F8
:1000C0002D18AC4201D100F047F80FCCA246AB4648
:1000D0000CA730CF2D1B083F3F197C427F1E544494
:1000E0002D090426F441641EAC4201D300F034F81B
:1000F0000126334200D0FB1A3343984754465D46ED
:10010000DFE700007C3E00009C3E0000103A02D376
:1001100078C878C1FAD8520701D330C830C101D5A8
:1001200004680C6070470000704700000023002442
:1001300000250026103A01D378C1FBD8520700D31E
:1001400030C100D50B6070471FB503F047FB03F0CB
:1001500055FC1FBD10B510BD03F066FC1146FFF73E
:10016000F3FF01F067FE03F07EFC03B4FFF7F2FF3C
:1001700003BC03F085FC000080B503480022114653
:1001800003F012FD80BDC04634020020B0B5AAB015
:1001900072B601F04DFA5048249000200590259049
:1001A00026904E492791289004202990269B259A35
:1001B00024992798289C299D02950194009003205A
:1001C0000390000701F094FA03990598444A1E929F
:1001D00049021F9120904349219122902390209B16
:1001E0001F9A1E992198229C239D029501940090AC
:1001F0003D4801F07DFA059901200490189019916D
:100200001A911B911C911D901A9B199A18991B9871
:100210001C9C1D9D029501940090344801F068FAE1
:100220000598334912911390149015901690302030
:100230001790149B139A12991598169C179D029566
:10024000019400902B4801F053FA04990598090392
:100250000C910D900E900F901090402011900E9BDD
:100260000D9A0C990F98109C119D02950194009085
:10027000214801F03DFA05981121090206910790E5
:10028000089009900A9050200B90089B079A0699B5
:1002900009980A9C0B9D029501940090174801F063
:1002A00027FA01F053FA01F047FB01F06DFB01F072
:1002B0001BFB134800687D21C90003F0E5FA00F03C
:1002C00021F862B600F046F80A2001F01DFB03F0A9
:1002D0006FFA2AB0B0BDC04612080000030030001B
:1002E0000AAA0000110022110001003000020030B3
:1002F0000505000000030030000400300005003058
:100300007401002080B584B002900298401E000E57
:10031000002803D0FFE70120039011E00298401E5F
:100320000949086000200190C043032100F0ECF966
:10033000019806490860064A072111600390FFE70B
:10034000039804B080BDC04614E000E018E000E06F
:1003500010E000E080B50949FA20087000204870DC
:100360004880192008711E20487101208871F520ED
:10037000087200F013FA00F097FD80BDC60200205D
:1003800080B588B000F010FC01F0A4F800F0A8FDE2
:1003900000F0F6FECB484078002800D1EAE0CA48D9
:1003A0000078C007002809D1FFE7C7490878012273
:1003B00010430870C34900208871FFE700F09CFEDD
:1003C000C048C0798006C10F0120002905900FD1D7
:1003D000FFE7BC48C0794007C10F01200029059004
:1003E00006D1FFE7B748C0790007C00F0590FFE7C7
:1003F00005990120014007A801700078C007002876
:1004000031D0FFE7AF48C0798006C00F002829D05F
:10041000FFE7AD4800788007C00F00281DD0FFE738
:100420000020049003F0A8FC049803F075FB0498E6
:1004300003F0F4FB049803F095FC049803F097FC98
:10044000A1490878FD2210400870AA48FF2103F056
:10045000DBFB0498A8490860FFE79C48A74903F024
:1004600016FBFFE785E0984800788007C00F00285A
:1004700006D1FFE794490878022210430870FFE78D
:1004800096480068002808D0FFE78E488079934995
:1004900009688E4A00F03CFA56E08E4800689049A0
:1004A000884207D3FFE7874842888849002000F048
:1004B000BBFA48E0874800688A49884208D3FFE7CA
:1004C0008048042142568149012000F0ADFA39E00C
:1004D000804800688449884208D3FFE779480521AD
:1004E00042567A49022000F09FFA2AE079480068D3
:1004F0007E49884207D3FFE772484288734900204B
:1005000000F092FA1CE0734800687949884208D3E9
:10051000FFE76C48042142566C49012000F084FA40
:100520000DE06C480068002808D0FFE76548052109
:1005300042566649022000F077FAFFE7FFE7FFE73F
:10054000FFE7FFE7FFE7FFE762480068002804D104
:10055000FFE75F4900200870FFE75D48007800284A
:1005600004D1FFE75B495C480860FFE701F0C8FB86
:10057000FFE73CE054480078C007002818D0FFE7A8
:1005800051490878FE22104008704E49002003901F
:10059000887103F0F1FB039803F0BEFA039803F0AF
:1005A0003DFB039803F0E3FB039803F0DBFBFFE75D
:1005B00046491A20C87088704870087041490291F5
:1005C000C879DF221040C871C879EF221040C87185
:1005D000C879FB221040C871C879F7221040C87151
:1005E0003B49002008703B493B480860FFE700F0AA
:1005F00005F900F079FD33484178414842780120FF
:10060000914201904CD1FFE72E4881793C48827994
:1006100001209142019043D1FFE72A48C079400769
:10062000C10F3748C0794007C20F012091420190A5
:1006300036D1FFE72348C0790007C10F3048C079A1
:100640000007C20F01209142019029D1FFE71D4808
:10065000C079C006C10F2A48C079C006C20F012068
:10066000914201901CD1FFE71648C0798006C10F66
:100670002348C0798006C20F0120914201900FD11A
:10068000FFE71048C079C1091D48C079C20901209F
:100690009142019004D1FFE71A4800780190FFE7EA
:1006A00001990120014006A801700078C0070028C8
:1006B00006D0FFE713490020087000F069FFFFE74C
:1006C00008B080BDC6020020340200201F000020B8
:1006D0002C02002030020020701700008002002051
:1006E00089130000A10F0000B90B0000D107000022
:1006F000E903000060020020680200207C3F000047
:10070000D00200209002002070B582B001900091CC
:100710000198002814D4FFE701980321CB43184027
:10072000164A805801998C07E50EFF24AC40A0437F
:10073000009CA401E4B2AC4020431940885018E06A
:1007400001980F24204008380321CB4318400A4A5F
:10075000805801998D07EE0EFF25B540A843009DF6
:10076000AD01EDB2B5402843214008391940885009
:10077000FFE702B070BDC0461CED00E000E400E001
:1007800080B5FFF7F9FC80BD80B5034830213122E8
:1007900002F04EFD80BDC0463802002080B584B016
:1007A0000020019003F072FA019803F053FA0198C7
:1007B00003F0A0FA019803F085FA019803F0B6FA65
:1007C0000C48029002F094FD029802214022C023BE
:1007D00002F0C6FF0199029802F0D5FF0648039087
:1007E00003A803F071FB0146029802F0C1FE04B0B9
:1007F00080BDC046380200201A1A1A1A80B500F0CF
:1008000005F800F031F800F039F880BD80B584B00B
:1008100014484078002815D0FFE70120039003F02A
:1008200035FA039803F066FA0E480290C079800604
:10083000C00F03F047FA02980399C079084003F00B
:1008400075FA0DE00020019003F020FA019803F002
:1008500051FA019803F036FA019803F067FAFFE7BE
:1008600004B080BDC602002080B503484078411E18
:10087000884103F0EFF980BDC602002080B584B046
:100880001D480068002805D1FFE71B497D20C000F6
:100890000860FFE71949002008701948194903F05A
:1008A00061FB002807D1FFE7144800781649097852
:1008B00088421ED0FFE71148039001781348019049
:1008C00002F06CFF0E48029003F0FEFA0146019818
:1008D00002F04EFE02990398CB780A4AD3708B78C7
:1008E00093704B785370097811700078064908703E
:1008F000FFE700BF04B080BD54020020800100204B
:100900001F0000205002002081010020380200203A
:1009100089B0034608A803700791069200780490F6
:10092000032835D80498810001A040588746C04666
:100930004109000055090000690900007D09000017
:1009400006991520C870122088701B2048701A2044
:1009500008701EE006991020C870182088701720B3
:1009600048701620087014E006991820C8700420FA
:100970008870022048701A2008700AE006991E202C
:10098000C8701D208870192048700A20087000E087
:10099000FFE707982049884207D3FFE7079901201E
:1009A0001E4A9142039023D3FFE707981C498842CF
:1009B00007D3FFE7079901201A4A9142039017D302
:1009C000FFE707990020002902900ED0FFE7079962
:1009D000FF22F6320120002300939142019001D3BF
:1009E0000098019001980290FFE702980390FFE7BA
:1009F00003990120014005A801700078C007002874
:100A000007D0FFE706991A20C870887048700870F0
:100A1000FFE709B07047C046D1070000C5090000D4
:100A2000E9030000DD05000080B58EB00DAB089332
:100A300018700C910B920B980A900A987D21C900AE
:100A4000019102F02BFF02900C98002103F041FA73
:100A500001990246029810700A9802F01FFF0A914D
:100A60000A986421039102F019FF04900C98012167
:100A700003F02FFA03990246049810700A9802F0C6
:100A80000DFF0A910A980A21059102F007FF0690CE
:100A90000C98022103F01DFA059902460698107081
:100AA0000A9802F0FBFE07910C98032103F011FA5B
:100AB00007990246089811700078002823D1FFE7B3
:100AC00009A900200870FFE709A80078022819DCAE
:100AD000FFE70C9809A9097803F0FBF900780028D2
:100AE00009D1FFE70C9809A9097803F0F2F901464A
:100AF0001A20087000E005E0FFE70998401C09A9EA
:100B00000870E1E749E00DA8007801281FD1FFE750
:100B10000C98002103F0DDF90146102008700C98B4
:100B2000012103F0D6F901461A2008700C98022121
:100B300003F0CFF90078002808D1FFE70C980221D4
:100B400003F0C7F901461A200870FFE724E00DA85A
:100B5000007802281FD1FFE70C98002103F0B9F9B3
:100B60000146112008700C98012103F0B2F90146EA
:100B70001A2008700C98022103F0ABF900780028C5
:100B800008D1FFE70C98022103F0A3F901461A20CF
:100B90000870FFE7FFE7FFE7FFE70EB080BD80B515
:100BA000FFF7F2FD80BD000083B0B1480068B14995
:100BB0008968401A312801D8FFE756E1AC4800683F
:100BC000AC49886002A9FF200870AB480068800724
:100BD000C00F002806D1FFE702A90878FD221040C7
:100BE0000870FFE7A54800680007C00F002806D17D
:100BF000FFE702A90878FE2210400870FFE79D4930
:100C000000200870487001AA01211170694608701F
:100C1000FFE768460078012869DCFFE795484079DE
:100C200001A90978084214D0FFE7029A01A80178C7
:100C30000846904388420CD1FFE7019A8D4801781D
:100C400011430170694609784118C878401CC87082
:100C5000FFE78848427901A8017808469043884216
:100C600010D1FFE7029A01A8017808469043884214
:100C700008D1FFE7684601787E484118C878401CD3
:100C8000C870FFE77B48427901A801780846904385
:100C9000884213D1FFE702A8007801A90978084229
:100CA0000CD0FFE7019A73484178114341706946BF
:100CB00009784118C878401CC870FFE76846017879
:100CC0006C484018C078FA2807DBFFE768460178CF
:100CD00068484118FA20C870FFE70198400001A950
:100CE0000870FFE70098401C6946087091E7029978
:100CF00060484171C078502813DBFFE75D480079F8
:100D000000280ED1FFE75B488078C043C007002869
:100D100006D0FFE757498878012210438870FFE723
:100D2000FFE754484078C007002815D0FFE7514836
:100D30008078C043C007002806D0FFE7ED49487817
:100D4000012250404870FFE74A498878FE2210404F
:100D500088700020C870FFE74648C078002826D178
:100D6000FFE744480079502821DBFFE741488078BD
:100D7000C0438007002819D5FFE73E498878022242
:100D800010438870FA48407800280ED0FFE73C48AE
:100D900001780122514001700078002804D0FFE75B
:100DA000384939480860FFE7FFE7FFE7FFE73148C8
:100DB00040788007002831D5FFE72E488078C0436F
:100DC0008007002822D5FFE72A48007900281CD098
:100DD000FFE7E7484078002816D0FFE72B48006877
:100DE00000280DD0FFE7E2488179491C81718079A4
:100DF000042804DBFFE7DE4900208871FFE7FFE7F6
:100E0000224923480860FFE7FFE7FFE71949887890
:100E1000FD221040887000200871FFE71548C07857
:100E2000502822DBFFE71348007950281DDBFFE73D
:100E300010488078C043C007002815D0FFE70D4850
:100E40008078C043800700280ED5FFE709498878DD
:100E5000032210438870C649C87980221043C871A4
:100E60000C4901200870FFE7FFE703B07047C04658
:100E700088020020240000201405003014030030F4
:100E80002C02002030020020881300008002002085
:100E9000B80B00009002002080B5024802F063FE0B
:100EA00080BDC046840100200A4802680A48C17912
:100EB000D207920EDF2319408918C171C279074900
:100EC0000878120902231A40FD2318408018087080
:100ED0007047C04614040030C602002034020020CF
:100EE00080B582B06D4800686D490968401A0028D5
:100EF00001D1FFE7CFE0694800686949086001A9AE
:100F00000020088000F000FD009000989B218900DF
:100F1000884204D8FFE701A900200880A3E00098D8
:100F20006049884204D8FFE701A90120088099E0C0
:100F300000985D49884204D8FFE701A90120088094
:100F40008FE000985949884204D8FFE701A90120A1
:100F5000088085E000985649884204D8FFE701A937
:100F6000012008807BE000985249884204D8FFE7BE
:100F700001A90120088071E000984F49884204D8F7
:100F8000FFE701A90120088067E000984B498842EB
:100F900004D8FFE701A9012008805DE000984849D6
:100FA000884204D8FFE701A90120088053E0009897
:100FB0004449884204D8FFE701A90120088049E09C
:100FC00000984149884204D8FFE701A90120088020
:100FD0003FE000983D49884204D8FFE701A901207D
:100FE000088035E000983A49884204D8FFE701A913
:100FF000022008802BE000983649884204D8FFE799
:1010000001A90220088021E000983349884204D8D1
:10101000FFE701A90220088017E000982F498842C5
:1010200004D8FFE701A9022008800DE0009800091C
:10103000E02804D8FFE701A90220088003E001A905
:1010400003200880FFE7FFE7FFE7FFE7FFE7FFE791
:10105000FFE7FFE7FFE7FFE7FFE7FFE7FFE7FFE760
:10106000FFE7FFE7FFE71E48407800280FD0FFE7C3
:10107000019A1B4841888918418040881949884253
:1010800004DBFFE7164917484880FFE703E01449EF
:1010900000204880FFE702B080BDC04688020020E3
:1010A0006C02002065030000E10300005D04000005
:1010B000550500004D060000C90600004507000068
:1010C000C10700003E080000BA0800003609000011
:1010D0002E0A0000260B00001E0C0000160D00005A
:1010E000C6020020E70300000249C879EF22104041
:1010F000C8717047C602002080B582B019480068E8
:1011000019494968401A65280FD3FFE71548006858
:1011100015494860154802681549C879D207920EEA
:10112000DF2318408018C871FFE71149C879FB22F6
:101130001040C871C879F7221040C8710D4870304E
:1011400002F048FE01460C4A012000230093914220
:10115000019001DC0098019001980849087002B0E4
:1011600080BDC046880200205802002014040030D0
:10117000C602002084010020B1090000FC0100200B
:1011800010B582B054482421405C002812D1FFE7FA
:101190005348006850498969401AC0087C2801D822
:1011A000FFE797E04E4800684B4988612422012000
:1011B00088548FE048482421405C012816D1FFE77D
:1011C0004849086803229203904301229203801841
:1011D000086046490868802210430860404800685B
:1011E0003D49886124220220885472E03A48242133
:1011F000405C02280ED1FFE739480068364989690A
:10120000401A152805D3FFE73349242203208854C8
:10121000FFE75DE030482421405C032821D1FFE74F
:101220002D49009100200875087248728872C872B2
:10123000087332220A6208772A4A106803239B0344
:1012400098430123DC0300191060274A10680F241B
:101250002407A0435B07C018106024220420885490
:1012600035E01D482421405C04282FD1FFE71A48AF
:10127000006A002805D1FFE717492422002088547E
:1012800023E01548007F00281ED0FFE71249087AA6
:101290004A7A80188A7A8018CA7A821801A802705D
:1012A0000078097B88420AD1FFE70B49087A0B4A8C
:1012B0005071887A10710A4800688861FFE7064912
:1012C000242200208854FFE7FFE7FFE7FFE7FFE75E
:1012D000FFE7FFE702B010BD04020020C6020020B5
:1012E0008802002000040030080400302004003090
:1012F00080B582B0544801685448016100698D2866
:1013000009D3FFE751480069B32804D8FFE74F49E4
:1013100000200875FFE74D48017D684601700078A0
:10132000012815DBFFE768460078082810DCFFE796
:101330004649087A4000087201A800F089F80028A0
:1013400005D0FFE74149087A401C0872FFE76BE0CF
:1013500068460078092815DBFFE768460078102802
:1013600010DCFFE73949487A4000487201A800F0D4
:101370006FF8002805D0FFE73449487A401C4872CE
:10138000FFE750E068460078112815DBFFE7684664
:101390000078182810DCFFE72C49887A4000887212
:1013A00001A800F055F8002805D0FFE72749887A02
:1013B000401C8872FFE735E068460078192815DB85
:1013C000FFE768460078202810DCFFE71F49C87A4D
:1013D0004000C87201A800F03BF8002805D0FFE7E4
:1013E0001A49C87A401CC872FFE71AE068460078BC
:1013F000212815DBFFE768460078282810DCFFE786
:101400001249087B4000087301A800F021F8002869
:1014100005D0FFE70D49087B401C0873FFE7FFE795
:10142000FFE7FFE7FFE7FFE70848017D491C01757B
:10143000007D292806DBFFE704490020087501200C
:101440000877FFE702B080BD0C22004004020020B4
:1014500084B003900C4801690020652902900DD3E7
:10146000FFE7094801690120002200928C290190C0
:1014700001D30098019001980290FFE702980121A2
:10148000084004B07047C0460402002080B5FFF752
:1014900003FD80BD80B5024802F036FB80BDC0462A
:1014A0009802002080B5024802F048FB80BDC0468B
:1014B000C602002080B5024802F040FB80BDC04655
:1014C000D002002080B5024802F038FB80BDC04643
:1014D000BC02002010B582B01D4802F007FB0028B6
:1014E00033D0FFE71B4901910831194802F0DEFAB9
:1014F00001980078FA2823D1FFE71648007AF528EA
:101500001ED1FFE713484178134A00925170817849
:101510009170C178D17081799171C379D1790224A8
:101520002340FD242140C918D171C3790120034013
:10153000D179FE242140C918D17108490870FFE70C
:101540000448092100F00CF8FFE702B010BDC046C6
:1015500098020020BC020020C60200209002002059
:1015600083B00290019100200090FFE7009801995C
:10157000491E88420AD2FFE70299009A88184078EB
:101580008854FFE70098401C0090EFE703B07047D5
:1015900080B582B000200190FFE7019808281BD891
:1015A000FFE7019A1948815C194881540199405C10
:1015B00069460870FFE7174800688006002801D4D4
:1015C000FFE7F8E768460178134801F0A4FBFFE75E
:1015D0000198401C0190E0E70B480068002811D1F9
:1015E000FFE70A48C079C00900280AD0FFE7074989
:1015F000C8797F221040C8710549C8791040C87168
:10160000FFE7FFE702B080BD94020020C602002081
:10161000D0020020144100400041004080B5FFF797
:1016200039FFFFF73FFFFFF745FFFFF74BFF80BD97
:1016300010B50F200024214600F07EFE204600F069
:10164000CBFE0420214600F0D1FE0448044901608D
:10165000044801600B2000F07FFE10BD78010020DF
:10166000005A62027401002010B53F200024214678
:1016700000F0E4FE032001070C600C61CC608C607C
:101680004C608C61144A0A6040020861CC601348C7
:1016900088604C608C611248012101600461C46063
:1016A0008460446081610F48052101600461C46069
:1016B0008460446084610C4804600461C460846098
:1016C00044608461094804600461C46084604460CB
:1016D0004021816110BDC0460AAA000011002211FC
:1016E000000200300003003000040030000500302C
:1016F000F0B582B001920D24240707190824E741B0
:10170000099A089E079D052F09D80091B90008A7DE
:1017100079580D4F3F680F4300990B4C2760466086
:101720008560C360019B03618261016002B0F0BD0E
:10173000010000000200000004000000080000009A
:10174000100000002000000020180040B0B582B05A
:101750006A462820508000209080907112481080A6
:10176000124C01252046294600F0B4FE20462946A9
:101770002A4600F0DFFF20680421014321600C4865
:101780000168C0220A433F218A43026028020949B6
:10179000086000F0A1FC206828432060204629460C
:1017A00000F0DFFF02B0B0BDFFFF000000220040EC
:1017B00008E400E000E100E010B584B001AA2820B0
:1017C00090800020D08010725080FA201080054C4C
:1017D0000321204600F07EFE0121204600F0C1FFDB
:1017E00004B010BD0023004070B584B001AA0026EB
:1017F000967128205080968001251570114C204646
:10180000294600F0C7FF204629462A4601F05EF827
:10181000204631462A4601F059F80B4860602046C0
:1018200001F085F82046294601F071F8E8030749E0
:10183000086000F051FC0421204601F092F804B049
:1018400070BDC0460025004040420F0000E100E0AE
:1018500070B5012460040025294600F033FEE00441
:10186000214600F0F1FD134E3046294601F010F9F3
:101870001149304601F018F93046294601F01CF9AB
:101880003046294601F020F93046294601F024F976
:101890000A483062102130462A4601F0CBF84F2327
:1018A000304629462A4601F01FF9E103304601F08F
:1018B000CDF870BD00240040204E000000046CE014
:1018C000B0B584B0012400252046294600F0FAFD79
:1018D00001A84580047003490391029101F02AFC9C
:1018E00004B0B0BD50C3000080B584B005200390A3
:1018F000002002900190034801A900F01BFB04B0F6
:1019000080BDC0460030004010B50146094C20465D
:1019100000F04AFB204600F053FB204600F070FB2D
:10192000C006FAD5204600F061FB204600F06CFBB3
:1019300010BDC04600300040B0B584B06C462046B3
:1019400001F080F9E120400200900C4D284621462C
:1019500001F0F6F8002101242846224601F080F922
:1019600007480168C0220A433F218A4302602005DC
:101970000449086000F0B0FB04B0B0BD0041004075
:1019800014E400E000E100E070B588B000200790AA
:1019900006900190E12040020090032605960F4C2E
:1019A0006946204601F01CFA0125204629462A46B0
:1019B00001F004FBFF20000609490A688243B007D2
:1019C00010180860E8020749086000F085FB20460F
:1019D000294601F03BFB08B070BDC046003800400E
:1019E00008E400E000E100E00020704770470020BC
:1019F0007047C04670B5154E032400253046214679
:101A00002A4600F0B0FB304621462A4600F0DAFBB9
:101A100002260123304621462A4600F0FBFA2846DA
:101A20003146224600F018FB094800F063FBFF2016
:101A3000000608490A688243A00710180860064992
:101A40000820086000F048FB70BDC046000200306E
:101A5000FF0F000000E400E000E100E0FEE700000E
:101A600034490868401C086033480068002805D0E5
:101A7000FFE731490868401E0860FFE72F48006A09
:101A8000002805D0FFE72D49086A401E0862FFE7DD
:101A90002B480068002805D0FFE729490868401E48
:101AA0000860FFE727480068002805D0FFE72549C0
:101AB0000868401E0860FFE723480068002805D03A
:101AC000FFE721490868401E0860FFE71F480068DB
:101AD000002805D0FFE71D490868401E0860FFE7A1
:101AE0001B480068002805D0FFE719490868401E18
:101AF0000860FFE717480168491C01600068022878
:101B000004D3FFE7134900200860FFE7114800688D
:101B100011490968884206D2FFE711490868402246
:101B20001043086005E00D49086840221043086032
:101B3000FFE7704788020020000200200402002016
:101B400030020020680200208002002054020020A1
:101B500094020020840200208C0200201C0500302A
:101B60002005003080B582B0002001901048006848
:101B70000007C00F01900198012806D1FFE70C492A
:101B80000868082210430860FFE70948006840071A
:101B9000C00F01900198002808D0FFE7FFF7A8FBCD
:101BA00003490868042210430860FFE702B080BDC3
:101BB0000022004080B582B00020019012480068E9
:101BC000019001A800780007800F00281AD0FFE7D5
:101BD00001A800780007002805D5FFE70A4808217A
:101BE00000F0BFFEFFE701A800784007002805D5F8
:101BF000FFE70548042100F0B4FEFFE7024800F0CB
:101C000096FEFFE702B080BD0025004080B586B09B
:101C10001C480068039003980E2108400290029827
:101C200006280ED1FFE718480068019001981E2190
:101C3000084001900198002802D0FFE7FFE7FEE787
:101C4000FFE70298042815D1FFE7FFE70F4805A931
:101C50000122002301F098F801900198002806D095
:101C6000FFE705A801780A4801F031FF00E000E035
:101C7000ECE7FFE70298022801D1FFE7FFE706B093
:101C800080BDC04608410040144100400041004072
:101C90009802002080B586B0124801F0E7F9039061
:101CA00003A80078029002A800788006002810D5CA
:101CB000FFE7FFE70B4805A90122002301F011FA15
:101CC00001900198002801D0FFE700E000E0F1E773
:101CD000FFE702A800784006002801D5FFE7FFE7EC
:101CE00006B080BD0038004084B004B07047704733
:101CF00080B50248FF2101F07BFF80BD600200201B
:101D000080B586B04748817901200029049015D01C
:101D1000FFE7444881790120012904900ED0FFE7B4
:101D20004048817901200229049007D0FFE73D480F
:101D30008079C01E414248410490FFE70499012088
:101D4000014005A801700078C00700280DD0FFE70A
:101D50003548FF2102F04CF8002805D0FFE7324853
:101D6000002101F051FFFFE70FE00020039002F097
:101D700003F8039801F052FF2B48FF2102F038F8D6
:101D8000002801D0FFE74AE0FFE72748002102F0E2
:101D90002FF8002809D0FFE72348029001F020FF28
:101DA0000298032101F030FF39E01F48032102F0BF
:101DB0001FF800280CD0FFE7012001F0DDFF1A48D2
:101DC000019001F00DFF0198042101F01DFF25E0B5
:101DD0001548042102F00CF8002814D0FFE712483F
:101DE000642102F014F800280CD0FFE7012001F074
:101DF00015FF0D48009001F0F3FE0098FF2101F05F
:101E000003FFFFE709E00848FF2101F0F1FF002888
:101E100002D0FFE700BFFFE7FFE7FFE7FFE706B0FD
:101E200080BDC046C60200206002002080B5FFF7DA
:101E30005FFF80BDFEF7AAF9FEF7A2FAFCE70000FB
:101E400010B5154801688907090F14A25158174A9F
:101E5000116003689B0704D143689B049B0FD94022
:101E60001160846807231C40052C06D38168042474
:101E70000C4303218C438460116882681A40042358
:101E80009A1AD1400A4A1160C06803220240D14028
:101E90000848016010BDC04600180040005A6202A8
:101EA0000024F40000800000409C00007C02002020
:101EB000740100207801002004480168C9B2552946
:101EC000FBD172B6024803490160704728F0004018
:101ED000001A0040A095695A074880470748004704
:101EE000FEE7FEE7FEE7FEE7FEE7FEE704480549FA
:101EF000054A064B70470000B91E0000B100000003
:101F0000E0020020E0050020E0030020E0030020C4
:101F10000249086008680028FCD1704700020020D0
:101F2000002805D0242100BF491EFCD1401EF9D154
:101F30007047000070B5002818D00D4604460126F1
:101F4000B002314600F08CFAF00320602968C9071E
:101F5000490D6A685207920C511808181030206019
:101F6000A8681F210140A160002070BD012070BD44
:101F700010B5002807D0002404600120800221460B
:101F800000F06EFA00E00124204610BD002809D0C0
:101F90004A1E91414901026820239A435118016069
:101FA0000020704701207047002807D00F22114001
:101FB000036893435918016000207047012070475F
:101FC000002806D00121090202680A4302600020AD
:101FD000704701207047002806D0012109020268DD
:101FE0008A4302600020704701207047002805D016
:101FF000016810220A4302600020704701207047E8
:102000000168102008407047416801480840704747
:10201000FF0F000070B50E4C0E4D012808D00428AB
:1020200004D0022813D1241D2D1D01E00C340C35E1
:102030008A40012088402E68864316432E6048005F
:10204000834003218140206888431843206070BD8D
:102050000411004004100040B0B51A4B072A11D8F3
:1020600003282DD8800002A420581C468746C0466D
:10207000B120000081200000A1200000A920000064
:102080001C1D15E003281BD81C461034083AC04616
:1020900078440079400087440B010509143306E0B9
:1020A000083304E0183302E00C3300E01C331C4614
:1020B000900081400F2282402068904308432060B6
:1020C000B0BDC0460013004002490A6882430A605E
:1020D0007047C0460014004002490A6802430A6083
:1020E0007047C04600140040014908607047C04670
:1020F00004120040014908607047C04608120040C1
:10210000014908607047C04610120040014800684D
:102110007047C04604120040014800687047C0463E
:1021200008120040014800687047C0461012004085
:102130000160426083600099C1600199016170474C
:10214000B0B5082901D30C2300E00823C4588D0042
:10215000082900D3203DE9B20F258D40AC438A40C9
:102160002243C250B0BDB0B5032A01D0134600E0EF
:1021700001234C06240EA3400325A5400468AC436C
:102180001C43046002231343032B08D101238B401B
:102190004168032A01D0994300E019434160B0BD72
:1021A0008A4001238B40416A994311434162704741
:1021B0004906090E8A4003238B4001699943114364
:1021C0000161704710B507231B04846A9C430123F7
:1021D0008B4013432343836210BDC161704701628A
:1021E000704781617047406980B270470249086852
:1021F0003F220A607047C0461CF000400149086059
:102200007047C04620F0004003484168C9B25529D4
:1022100001D002490160704724F000402D00B39EB8
:10222000014908607047C04630F00040B0B5002852
:1022300001D0102200E00F221F21002801D00C46FF
:1022400000E00124094805682B460B40934200D06A
:102250002B190B400168E0220A40D118FF220232FC
:102260004A43034951400160B0BDC046A8F0004058
:1022700000FFB5A610B515490C680A68F0231A408E
:10228000002808D0641E07202040032815D1802A8A
:102290000AD0032009E0641C0720204004280CD148
:1022A000702A06D0042005E00420802A05D0103AC8
:1022B00003E00320702A00D010321A401018FF22C9
:1022C0000232424302485040086010BDACF000406A
:1022D00000FF3D4C10B5084A13681B0703D4136870
:1022E000064C1C43146008430C2101431161106922
:1022F00080210143116110BD04180040080007A5AA
:102300000448016860229143016001688022914382
:102310000160704714180040B0B5054B1C680F25CC
:102320002540084310432843024901431960B0BDCA
:1023300004180040000007A5084304490A68044B3C
:1023400013400343034818430860704704180040D3
:10235000FFCF0000000007A503490A6892B2034BB3
:10236000D21882430A60704704180040000007A595
:102370000A498A68FF239A438A600A69084B1A400F
:102380000A610A681A400A600A680A2313430B604C
:1023900004490143044801607047C046000500300D
:1023A000F0FFFF000000379B80180040FF20010273
:1023B000074882688A4382600169064A11400161C8
:1023C0000168114001600168A0220A430260704761
:1023D000000500300FFFFF00024901430248016081
:1023E0007047C04600000A5700180040014A1060BC
:1023F00051607047081800400F20010408488268A7
:102400008A4382600169074A1140016101681140F5
:1024100001600121490202680A4302607047C04618
:1024200000050030FFFCFF000843104380210143FA
:10243000014801607047C04610180040014A106012
:102440005160704720180040044A002902D01168EA
:10245000014301E01168814311607047201800407A
:10246000044A002902D01168014301E01168814348
:102470001160704724180040054A106051600A201E
:1024800000BF401EFCD10020106050607047C04665
:1024900060180040044908600A2000BF401EFCD1BB
:1024A000002008607047C04660180040044908607A
:1024B0000A2000BF401EFCD1002008607047C046C3
:1024C00064180040EB4A13688343136010680843A4
:1024D0001060704770B515460E4604464448844265
:1024E0000ADC4948844213DC0120002C7FD0494992
:1024F0008C422AD1000425E03E48844211DC404849
:10250000844217D03F4884421FD10120400219E085
:102510003E48844211D03E48844216D101208004B6
:1025200010E0354884420BD0344884420DD101205C
:10253000C00207E00120000204E00120400401E0A5
:10254000012080020121FFF77FFF002E11D0012022
:1025500031468143022917D13003E9798A030243C6
:10256000A87900021043012925D1297AC902014323
:1025700022E0E9798A03A87900021043012913D1E6
:10258000297AC902014310E0012E2BD1287980015C
:102590006A7991030B182048411C1943012A17D16D
:1025A000AA79D2020A4314E0014688B22060A888C2
:1025B000401E194911E0014688B22060A888401EDB
:1025C00015490140216128886060AD1C082007E0A2
:1025D0000A4691B2216069880918014021610420EE
:1025E000298821502068012101432160002070BD0D
:1025F000FF260040FF28004000290040002A00403C
:102600000027004000280040FF2100400022004039
:102610000023004000210040FF0F000070B500289B
:1026200000D158E00446002505603B4820180826E4
:10263000F041092800D96BE07844007940008744D4
:1026400004182B6767673D4C586101200004002582
:102650002946FFF7F9FE31482018F041082857D8DD
:102660007844007940008744041753535329384471
:102670004D000120400400252946FFF7E5FE2848CB
:102680002018F041072843D8784400794000874457
:10269000033F3F3F1524303901208004002529469F
:1026A000FFF7D2FE1F482018F041032830D8C0465B
:1026B000784400794000874401101C25012630022F
:1026C00000252946FFF7C0FE1948844222D017484A
:1026D000844214D10DE001251AE0012040020025BA
:1026E0002946FFF7B1FE104884420BD00F488442C0
:1026F0000ED10120800200252946FFF7A5FE0A48D9
:10270000844205D10120C00200252946FFF79CFE26
:10271000284670BD7002F7E700DFFFBF00DEFFBF95
:1027200000DDFFBF00D9FFBF002A004000290040A4
:102730000028004010B5002806D04C1E63426341BB
:10274000002903D0190102E0012010BD2021012A37
:1027500002D102680A4301E002688A430260002055
:1027600010BD00280BD0491E4A424A41D103012224
:10277000D203036893435918016000207047012079
:102780007047002803D001600261002070470120DB
:102790007047000070B5012300284CD0354C364DF1
:1027A000A84205D0354B984208D101235B0500E0D3
:1027B0001B052546203D2E681E432E60002915D09E
:1027C00001230D469D43022D37D1157A1B0526683E
:1027D0009E43EB07DB0A9B1923600903137B9B03D2
:1027E0000B43517BC902194389B20EE0117A0123D0
:1027F0001B0525689D43C907C90A49192160117B3A
:102800008903537BDB020B4399B2937B1B020B437F
:10281000D17B8901194301605189491E184B0B4036
:1028200003611168416051680822815001680122EA
:102830000A4302600023184670BD0129F6D11178C1
:102840001D052668AE43C907C90A89192160517957
:1028500089031479A4016118947964020C43190363
:10286000214389B2016051884A1E05491140102256
:10287000DBE7C0464018004000250040002600402D
:10288000FF0F000000280ED001460120C0030A6897
:1028900082430A600020094A914206D0084A9142C8
:1028A00008D1084902E0012070470349064A13682D
:1028B0000B4013607047C046FFFFEFFF002500404C
:1028C00000260040FFFFDFFF2018004000280CD04A
:1028D0000346002001290AD0002917D1002A0ED072
:1028E000012A13D11A68202107E001207047002A2D
:1028F00008D0012A0AD11A681021114305E019688D
:10290000202201E0196810229143196070470028C5
:102910000BD0491E4A424A41D1030122D203036827
:102920009343591801600020704701207047002828
:1029300006D00168016801220A4302600020704746
:1029400001207047002807D003460020002905D049
:10295000012905D1082102E00120704704215A50C5
:102960007047002806D00D22114002680A43026019
:1029700000207047012070470068C0B27047C068EF
:1029800070470000B0B5002821D0124A904205D10E
:102990000122D204104B1C6814431C603CC9120372
:1029A0009B031343E2021A43AB01134303600A88FB
:1029B00042604A8882608A88C260CA880261098946
:1029C0008161016801220A4302600020B0BD01203C
:1029D000B0BDC046002400402018004000280AD0A6
:1029E00001460122D0030B6883430B600020064B95
:1029F000994202D0704701207047D104034A1368FE
:102A00008B4313607047C0460024004020180040EC
:102A1000002805D0012905D1816A1143816206E0B1
:102A200001207047816A91437F220A408262002020
:102A30007047C046002805D01143034A0A4302608C
:102A400000207047012070470120000000280BD0B3
:102A50000122D203891A4B424B41D90303689343A5
:102A6000591801600020704701207047002803D0EA
:102A7000012903D0054902E00120704702491343B0
:102A80000B43036200207047003F6CE000006CE0E5
:102A9000002804D0034A11408161002070470120C2
:102AA0007047C046FF0F0000002803D089B2416084
:102AB0000020704701207047002803D089B2816050
:102AC0000020704701207047002803D089B2C16000
:102AD0000020704701207047002803D089B20161AF
:102AE000002070470120704710B500280BD00A4322
:102AF0000321090204688C431443046003490B401A
:102B00004362002010BD012010BDC046FF0300003D
:102B1000002802D001630020704701207047002880
:102B200003D0416382630020704701207047002872
:102B300002D0C1620020704701207047C06A704710
:102B4000F0B581B000283AD00E4604462C488442A5
:102B500004D02C48844207D1082000E00420012141
:102B6000FFF77EFC00E020686069C007FBD1606968
:102B70008006FCD500206060E06000902061606904
:102B8000A06821480768306845013846294600F0AA
:102B90007BFE81B221626843381A0002294600F0A8
:102BA00073FEC0B26062E16840200840716800298D
:102BB0000BD0022905D0012905D1012104E0012013
:102BC0001BE0022100E003210843B16800290DD079
:102BD000042907D0032903D0022905D1182104E0D4
:102BE000282102E0382100E008210843F16801298A
:102BF00001D104210843E060009801B0F0BDC04657
:102C000000400040004100407801002010B500283D
:102C100011D00A49884204D00949884209D10824C0
:102C200000E004242046FFF741FC00212046FFF786
:102C300017FC002010BD012010BDC0460040004020
:102C400000410040002809D00146002003224B2308
:102C50005B020B604A608860C86070470120704763
:102C6000002806D0491E022905D8890008A3595812
:102C700002E0012070470121012A02D142680A4383
:102C800003E00F22514042680A4042600020704732
:102C9000020000000400000008000000002805D029
:102CA000032905D8890009A3595802E0012070477B
:102CB0000021012A02D102690A4303E01C2251408B
:102CC00002690A40026100207047C04610000000FF
:102CD00008000000040000000C000000002805D0DF
:102CE00002460020072900D8116370470120704771
:102CF000002805D0C16840220A43C2600020704706
:102D00000120704741697F20084070474069810970
:102D1000012088437047002802D0016000207047DE
:102D2000012070470068C0B27047C046F0B5012B63
:102D30001AD10023002A13D0124C154627463E46CE
:102D40004769BF0602D4771C002EF8D1002E07D0A9
:102D50000E7806605B1C6D1E491C002DEED11346DB
:102D600041694906FCD50BE00023002A08D04469DC
:102D7000A40605D5CC5C04605B1C9A42F7D11346CF
:102D80001846F0BD0100FFFFF0B50446012B16D137
:102D9000002A21D00020114B15461F463E46676988
:102DA000FF0702D1771C002EF8D1002E13D0266821
:102DB0000E70401C6D1E491C002DEED10AE0002A49
:102DC0000AD000206369DB0705D023680B54401C40
:102DD0008242F7D11046F0BD0020F0BD0100FFFF98
:102DE00070B50D4604462F4884420ADD2E488442C1
:102DF0000ED02E4884420DD02D48844212D1022696
:102E000009E00126002C4AD02A48844203D009E078
:102E1000202600E0102601213046FFF721FB304636
:102E2000FFF744FB244800682449086069680426C9
:102E30000029314600D00121C840296800F024FD56
:102E4000401E80B22061A8698007800C69688903F0
:102E500089B2081869694907090D4018A968C907A6
:102E6000C90D4018E968C901C9B24018296989012A
:102E7000C9B201430320084320606068B04360602A
:102E8000E8696168C007400F084360606068082116
:102E9000884360604020E0606069606900263046D9
:102EA00070BDC046FF380040003B0040003A004083
:102EB0000039004000380040780100207C010020EB
:102EC00002460120002A07D0C91E032904D8880021
:102ED00002A10858D06000207047C04610000000D2
:102EE0002000000040000000800000004069C0B2E7
:102EF0007047C04610B5114988420ADD1049884222
:102F00000ED0104988420DD00F49884212D10224B8
:102F100009E0012400280ED00C49884203D009E0C2
:102F2000202400E010242046FFF7C0FA00212046AC
:102F3000FFF796FA0024204610BDC046FF38004037
:102F4000003B0040003A004000390040003800409B
:102F500000280AD00146002003224A618861C86126
:102F60004B2252020A60486070470120704710B53A
:102F700000280ED001460020032201234B246402C6
:102F80000C604B608860C8600B614A618861C861F1
:102F900010BD012010BD00280DD0014600200322E5
:102FA0004B235B020B604A608860C86008614A611D
:102FB0008861C861704701207047C046002805D06D
:102FC000032905D8890008A3595802E00120704759
:102FD0000021012A02D102680A4301E002688A4303
:102FE000026000207047C046040000000800000096
:102FF0001000000020000000002805D0092905D895
:10300000890008A3595802E0012070470021012AD5
:1030100002D142680A4301E042688A4342600020CC
:103020007047C046010000000200000004000000DC
:103030000800000010000000200000004000000018
:1030400080000000000100000002000000280BD0FA
:10305000491E4A424A4151020122520243689343A7
:10306000591841600020704701207047C068C0B205
:103070007047C068C109012088437047002802D00A
:103080004161002070470120704770B50446012B54
:1030900018D1002A23D000201346002C01D00D782F
:1030A0006561491C01263546E668760602D46E1C29
:1030B000002DF8D1002D11D04025E560401C5B1E8D
:1030C000EBD10AE0002A0AD00020E3681B0605D5F0
:1030D0000B5C6361401C8242F7D1104670BD00203A
:1030E00070BD70B50446012B15D1002A20D00020F8
:1030F000134601263546E668B60602D46E1C002D3E
:10310000F8D1002D13D065690D70401C5B1E491C61
:10311000002BEED10AE0002A0AD00020E3689B06CB
:1031200005D563690B54401C8242F7D1104670BD2F
:10313000002070BD10B5002814D0044601214804B9
:10314000FFF78EF961680C4A11400C488160A16854
:103150001140016161882278012A05D0252292025E
:10316000114303E0012010BD054A1140054A0A43FE
:103170000260002010BDC046FFFFFF00001A0040A3
:103180005F020000A001695A024803490160002063
:103190007047C046001A0040A095695A10B5431EFA
:1031A0005A425A41002801D0D20000E004220648C9
:1031B00003689BB2054C1B19012901D0934300E021
:1031C00013430360002010BD001A00400000695A3C
:1031D00002486A21016000207047C046141A00406E
:1031E00007490A68012804D00D204001024392B229
:1031F00001E00448024004481018086000207047AD
:10320000001A00400FFC00000000695A01490860E4
:1032100000207047041A0040014800687047C0460B
:10322000041A0040014800687047C0460C1A00406C
:1032300084B003900291019203990091002088606C
:103240000298C217120F8218F0231A40801A0875CC
:103250000198C217120F82181A40801A48750298F6
:10326000C217120F801800090002032212078018EB
:10327000C8600198C3171B0FC0180009000280180E
:103280000861FFE70099C86840680B7D01229A40F9
:103290009043C9684860FFE7FFE70099C868006885
:1032A0000A7D530003229A40904301229A40104322
:1032B000C9680860FFE7FFE70099086940684B7D2F
:1032C00001229A40904309694860FFE7FFE70099AF
:1032D000086900684A7D530003229A409043012206
:1032E0009A40104309690860FFE7009804B07047EE
:1032F00080B582B00190019800F002F802B080BD64
:1033000080B584B003900398019000217F2202923F
:1033100000F0C2F90198029A012100F0BDF901986C
:10332000029A022100F0B8F90198029A032100F0F4
:10333000B3F904B080BD80B586B0059004A80170D3
:103340000598019003A900200870FFE703A8007802
:1033500007283BDCFFE7FFE701990A7D0120904049
:10336000C9680862FFE70A20FEF7DAFD04A80078C2
:10337000C007002809D0FFE7FFE701994A7D012037
:1033800090400969C861FFE708E0FFE701994A7DBD
:103390000120904009690862FFE7FFE70A20FEF775
:1033A000BFFD04A9087840080870FFE701990A7D6D
:1033B00001209040C968C861FFE70A20FEF7B0FD10
:1033C000FFE70398401C03A90870BFE7FFE70199D6
:1033D0000A7D01209040C9680862FFE70A20FEF7D5
:1033E0009FFDFFE701994A7D012090400969C8616E
:1033F000FFE7FFE701990A7D01209040C968C86195
:10340000FFE7FFE70199086900684A7D530003223E
:103410009A40904309690860FFE7FFE7019908694E
:103420004069497DC840C007002830D0FFE70298B6
:10343000411C02A801700078C8281BD1FFE7FFE7F4
:103440000199086900684A7D530003229A4090431D
:1034500001229A40104309690860FFE7FFE70199DC
:103460004A7D0120904009690862FFE702A9002017
:103470000870FFE7FFE70199086900684A7D53007B
:1034800003229A40904309690860FFE7C6E70A20D3
:10349000FEF746FDFFE70199086900684A7D530081
:1034A00003229A40904301229A4010430969086020
:1034B000FFE706B080BD80B582B001900198009012
:1034C000FFE700990A7D01209040C968C861FFE7C5
:1034D0000A20FEF725FDFFE700994A7D0120904074
:1034E0000969C861FFE70A20FEF71AFDFFE70099A6
:1034F0004A7D0120904009690862FFE70A20FEF733
:103500000FFDFFE700990A7D01209040C96808621D
:10351000FFE702B080BD80B582B0019001980090B5
:10352000FFE700994A7D0120904009690862FFE7A2
:10353000FFE700990A7D01209040C9680862FFE713
:103540000A20FEF7EDFCFFE700990A7D012090407C
:10355000C968C861FFE70A20FEF7E2FCFFE70099AF
:103560004A7D012090400969C861FFE702B080BD33
:1035700080B586B0059004910598019002A90020BD
:103580000870FFE702A8007803280CDCFFE7049826
:1035900002A90A78805C03A98854FFE70298401CBE
:1035A00002A90870EEE7019803A900F037F8019826
:1035B000FFF781FF01984021FFF7BDFE0198FFF75B
:1035C000AAFF0198FFF777FF01984178FFF7B3FE54
:1035D00002A900200870FFE702A8007803280DDC8C
:1035E000FFE7019802A90A7803A9895CFFF7A3FE07
:1035F000FFE70298401C02A90870EDE70198FFF769
:103600008AFF0198FFF757FF01988178FFF793FE33
:103610000198FFF780FF06B080BDC04684B00390DC
:1036200002910398009001A900200870FFE701A80B
:10363000007803282CDCFFE7029801A9097840569E
:103640007F2806D1FFE7029901A80278002088545C
:1036500007E0029901A802788B560E48C05C885496
:10366000FFE70098007901A90978C840C007002841
:1036700008D0FFE7029901A80278885C80231843EC
:103680008854FFE7FFE70198401C01A90870CEE7C6
:1036900004B070470000002080B586B0059004A8F3
:1036A0000090017003A90A700598019000228956C4
:1036B00000F03AF800990246019802AB1A700079BE
:1036C0000978C840C007002806D0FFE7029880218B
:1036D000084302A90870FFE70198FFF7ECFE019884
:1036E0004421FFF728FE0198FFF715FF0198FFF727
:1036F000E2FE019804A90978C0221143FFF71BFEDE
:10370000019802A90978FFF716FE0198FFF703FF59
:103710000198FFF7D0FE01988178FFF70CFE019821
:10372000FFF7F9FE06B080BD82B0019068460170D7
:10373000002140567F2804D1FFE769460020087029
:1037400006E0002069460A560448805C0870FFE7DE
:1037500000216846405602B07047C0460000002075
:1037600010B584B0039002A8017001A802706846E9
:103770000370039901980870009848700298883087
:10378000887004B010BD82B0019068460170019944
:10379000007801221040C87002B0704782B00190DA
:1037A0006846017001990098087102B070470000E6
:1037B0000B4A30B511460B4C60310B46DC3B0CC15B
:1037C000372106E0020C8D0012185A51064A504368
:1037D00000190A46491E002AF4DC30BD0120E7E743
:1037E000AC000020E119D666CD0D0100034610B5EE
:1037F0000B439B070FD1042A0DD308C810C9121F11
:10380000A342F8D018BA21BA884201D9012010BDCC
:103810000020C04310BD002A03D0D30703D0521CA0
:1038200007E0002010BD03780C78401C491C1B1BCE
:1038300007D103780C78401C491C1B1B01D1921E38
:10384000F1D1184610BD01E004C0091F0429FBD2C4
:103850008B0701D50280801CC90700D00270704719
:1038600000290BD0C30702D00270401C491E022958
:1038700004D3830702D50280801C891EE3E700225F
:10388000EEE70022DFE70000002203098B422CD381
:10389000030A8B4211D300239C464EE003460B43A0
:1038A0003CD4002243088B4231D303098B421CD302
:1038B000030A8B4201D394463FE0C3098B4201D3F4
:1038C000CB01C01A524183098B4201D38B01C01A2C
:1038D000524143098B4201D34B01C01A52410309A3
:1038E0008B4201D30B01C01A5241C3088B4201D352
:1038F000CB00C01A524183088B4201D38B00C01AFF
:10390000524143088B4201D34B00C01A5241411A25
:1039100000D201465241104670475DE0CA0F00D008
:103920004942031000D3404253409C460022030901
:103930008B422DD3030A8B4212D38901FC2212BA87
:10394000030A8B420CD3890192118B4208D389015F
:1039500092118B4204D389013AD0921100E0890977
:10396000C3098B4201D3CB01C01A524183098B4258
:1039700001D38B01C01A524143098B4201D34B0141
:10398000C01A524103098B4201D30B01C01A5241A4
:10399000C3088B4201D3CB00C01A524183088B422B
:1039A00001D38B00C01A5241D9D243088B4201D3B4
:1039B0004B00C01A5241411A00D2014652411046F2
:1039C00063465B1001D34042002B00D5494270474B
:1039D00063465B1000D3404201B50549002802DC74
:1039E000491C084000E00846C046C04602BD00BF72
:1039F000FFFFFF7F704770477047000008487CB5A5
:103A00007844009007487844009C0546019004E003
:103A10002046016808188047241DAC42F8D17CBDBF
:103A20009C050000AA050000754600F025F8AE468A
:103A3000050069465346C008C000854618B020B549
:103A4000FEF754FA60BCB64600260027C0C5C0C5C4
:103A5000C0C5C0C5C0C5C0C5C0C5C0C5403D49087A
:103A600049008D46704710B50446C046C046204602
:103A7000FCF77BFB10BD00000048704714010020DC
:103A800001491820ABBEFEE726000200704782B055
:103A90000190009100980199C278CA7082788A706A
:103AA00042784A700078087002B0704710B5028CF6
:103AB000438C9A4207D0448C045D0C70418C491CA5
:103AC0001F240C404484D01A411E884110BD10B5FB
:103AD000028C531C1F221A40438C9A4202D0048C41
:103AE00001550284D01A411E884110BD018C428CC0
:103AF000914204D2418C008C401A203002E0018CAB
:103B0000408C081A80B2704781B000900098002164
:103B10000184418401B0704781B06946087001B0EA
:103B2000704710B50446002020846061A061E16107
:103B300014212046FFF7A5FE204610BD84B0029058
:103B4000029803900146093100910190FFE7019826
:103B5000009900220270401C88420190F7D1FFE7D3
:103B6000039804B0704780B584B003900398019027
:103B7000052101700621417007218170001D00217F
:103B80000291FFF7CEFF019802992830FFF7C9FF95
:103B9000019802994C30FFF7C4FF01980299016720
:103BA0007422815404B080BD84B000910146009815
:103BB000039102A9087001A8027003980A7801789D
:103BC00001231A40FE23194089180170019A0178D7
:103BD000D207920FFD2319408918017004B0704775
:103BE00081B00090009981480068086001B070477A
:103BF00082B001906846017001987C4909680160B3
:103C00000099017102B0704782B00190684601705E
:103C100001980099017102B07047000081B001461F
:103C2000684601700078C007002806D0FFE7084901
:103C3000086801221043086005E004490868012271
:103C400010430860FFE701B07047C0461C02003017
:103C50002002003081B00146684601700078C0073C
:103C6000002806D0FFE708490868102210430860C2
:103C700005E004490868102210430860FFE701B01E
:103C80007047C0461C0500302005003081B0014659
:103C9000684601700078C007002806D0FFE7084991
:103CA000086804221043086005E0044908680422FB
:103CB00010430860FFE701B07047C0461C000030A9
:103CC0002000003081B00146684601700078C007CE
:103CD000002806D0FFE72249086810221043086038
:103CE00005E01E490868102210430860FFE701B094
:103CF0007047C04681B00146684601700078C00731
:103D0000002806D0FFE708490868402210430860F1
:103D100005E004490868402210430860FFE701B04D
:103D20007047C0461C0400302004003081B00146BA
:103D3000684601700078C007002806D0FFE70849F0
:103D4000086820221043086005E004490868202222
:103D500010430860FFE701B07047C0461C03003005
:103D60002003003081B06946087001B0704781B00F
:103D70006946087001B0704781B00146684601701D
:103D80000078C007002818D0FFE710488079042881
:103D90000ED1FFE70E480078002804D0FFE70A495B
:103DA0000120086003E0084902200860FFE703E003
:103DB000054902200860FFE703E00349002008608E
:103DC000FFE701B07047C0468C020020C602002009
:103DD000FC010020008C704781B0009000990348DE
:103DE00000680968401A01B07047C0468802002088
:103DF00083B0009101460098029101A908700298D1
:103E000000790978401A4142484103B0704780B5B3
:103E100084B0039002910398FFF7DEFF0146029AF7
:103E20000120002300939142019001D2009801905B
:103E3000019804B080BD80B582B00190019800F077
:103E400003F8001D02B080BD81B00090009801B061
:103E5000704780B582B001900198FFF7F5FF02B07E
:103E600080BD81B00090009801B0704780B582B0ED
:103E70000190019800F010F802B080BD80B584B0C8
:103E8000039002910192009303980199029A121AE9
:103E900000F00AF804B080BD80B582B001900198AE
:103EA000FFF7DFFF02B080BD80B584B003900291C0
:103EB00001920198009003980299009AFFF796FCEE
:103EC0004142484104B080BD81B00090009801B0EB
:103ED000704782B00190009101980099401802B09B
:103EE000704780B586B003AB00931346009A0193E8
:103EF00003460198936051601060906851681268A1
:103F000000F002F806B080BD80B586B00490039141
:103F100002920498FFF7AAFF01900398FFF7A6FF0B
:103F200000900298FFF7A2FF00990246019805ABA6
:103F3000FFF7A4FF06B080BD80B584B00390029166
:103F40000398FFF786FF01900398FFF774FF009036
:103F50000298FFF77EFF009902460198FFF7C1FF24
:103F600004B080BD80B582B00190009101980099A5
:103F7000FFF7E2FF0121484002B080BD0D1212138D
:103F8000B83F000000000020300000000C010000DD
:103F9000E83F000030000020B00500002C010000C8
:103FA000E1C7FFFFFBCBFFFFE5D4FFFF71D6FFFFAB
:103FB0007DDEFFFF000000003F065B4F666D7D0762
:103FC0007F6F777C395E797178765C5040665406F5
:103FD000743E005E1C073F1A1A1A1A000000000007
:083FE00000FF000000000000DA
:020000041FFFDC
:10F2000073A2C869FFFF0000FFFF0000DB96FFFF4D
:10F21000FFAAFFFFFFFFFFFFFFFFFFFFFFFFFFFF53
:10F22000FFFFFFFFFFFFFFFFFFFFFFFFFFFFFFFFEE
:10F23000FFFFFFFFFFFFFFFFFFFFFFFFFFFFFFFFDE
:04F24000FFFFFFFFCE
:020000041FFFDC
:10F40000E2E2E2E2FFFFFFFFFFFFFFFFFFFFFFFF80
:10F41000FFFFFFFFFFFFFFFFFFFFFFFFFFFFFFFFFC
:10F42000FFFFFFFFFFFFFFFFFFFFFFFFFFFFFFFFEC
:10F43000FFFFFFFFFFFFFFFFFFFFFFFFFFFFFFFFDC
:10F44000FFFFFFFFFFFFFFFFFFFFFFFFFFFFFFFFCC
:10F45000FFFFFFFFFFFFFFFFFFFFFFFFFFFFFFFFBC
:10F46000FFFFFFFFFFFFFFFFFFFFFFFFFFFFFFFFAC
:10F47000FFFFFFFFFFFFFFFFFFFFFFFFE2E2E2E210
:020000041FFFDC
:10F60000E3E3E3E3FFFFFFFFFFFFFFFFFFFFFFFF7A
:10F61000FFFFFFFFFFFFFFFFFFFFFFFFFFFFFFFFFA
:10F62000FFFFFFFFFFFFFFFFFFFFFFFFFFFFFFFFEA
:10F63000FFFFFFFFFFFFFFFFFFFFFFFFFFFFFFFFDA
:10F64000FFFFFFFFFFFFFFFFFFFFFFFFFFFFFFFFCA
:10F65000FFFFFFFFFFFFFFFFFFFFFFFFFFFFFFFFBA
:10F66000FFFFFFFFFFFFFFFFFFFFFFFFFFFFFFFFAA
:10F67000FFFFFFFFFFFFFFFFFFFFFFFFE3E3E3E30A
:04000005000000B146
:00000001FF
